:020000040800F2
:1000000000040020B9020008BB020008BB0200087F
:10001000BB020008BB020008BB020008BB020008CC
:10002000BB020008BB020008BB020008616C0008AC
:10003000BB020008BB020008BB020008BB020008AC
:10004000BB020008BB020008BB020008BB0200089C
:10005000BB020008BB020008BB020008BB0200088C
:10006000BB020008BB020008BB020008BB0200087C
:10007000BB020008BB020008BB020008BB0200086C
:10008000BB020008BB020008BB020008BB0200085C
:10009000BB020008BB020008BB020008BB0200084C
:1000A000BB020008BB020008BB020008BB0200083C
:1000B000F1100008BB020008BB020008BB020008E8
:1000C000BB020008BB020008BB020008BB0200081C
:1000D000BB0200080110000831100008BB02000834
:1000E000BB020008BB020008BB020008BB020008FC
:1000F000BB020008BB020008BB020008BB020008EC
:10010000BB020008BB020008BB020008BB020008DB
:10011000BB020008BB020008BB020008BB020008CB
:10012000BB020008BB020008BB020008BB020008BB
:10013000BB020008BB020008BB020008BB020008AB
:10014000BB020008BB020008BB020008BB0200089B
:10015000BB020008BB020008BB020008BB0200088B
:10016000BB020008BB020008BB020008BB0200087B
:10017000BB020008BB020008BB020008BB0200086B
:10018000BB020008BB020008BB020008BB0200085B
:10019000BB020008BB020008BB020008BB0200084B
:1001A000BB020008BB020008BB020008BB0200083B
:1001B000BB020008BB020008BB020008BB0200082B
:1001C000BB020008BB020008BB020008BB0200081B
:1001D000BB020008BB020008BB020008BB0200080B
:1001E00072B6264880F30888254880F30988254898
:1001F00025490860022080F31488BFF36F8F00F058
:10020000C7F801F02DFD4FF0553020491B4A9142AF
:100210003CBF41F8040BFAE71D49194A91423CBF23
:1002200041F8040BFAE71B491B4A1C4B9A423EBF9C
:1002300051F8040B42F8040BF8E700201849194A5A
:1002400091423CBF41F8040BFAE700F0B9F800F026
:10025000A7F8154C154DAC4203DA54F8041B884737
:10026000F9E70FF005FC124C124DAC4203DA54F8DA
:10027000041B8847F9E700F09BB800000004002049
:10028000000800200000000808ED00E00000002049
:1002900000040020C46B0208000800203809002078
:1002A0003809002020910120E0010008E001000849
:1002B000E0010008E001000892E700F000F8FEE726
:1002C0002DE9F04FC1F80CD0C3689D46BDE8F08F12
:1002D000002383F311882846A047002002F0E8FF9E
:1002E000FEE702F085FC00DFFEE7000000000000F2
:1002F00001F0FF01102A2BDB10F0070F08D010F8D7
:10030000013B013A8B422DD010F0070F42B3F6D1DA
:10031000F0B441EA012141EA014122F007047FF0F3
:1003200000070023F0E80256083C85EA010586EA4A
:10033000010685FA47F5A3FA87F586FA47F6A5FA86
:1003400087F68EB9EED1F0BC01F0FF0102F0070292
:1003500032B110F8013B013A83EA010313B1F8D13D
:100360000020704701387047002D06BF354603381E
:10037000073815F0010F07D1013015F4807F02BF57
:10038000013015F4C03F0130F0BC0138704700BFA8
:1003900000BF7047000000000000000000000000E7
:1003A00000BF7047000000000000000000000000D7
:1003B000FEE700BF00000000000000000000000099
:1003C00084B0174B0393039B1B680293039B5B68EA
:1003D000019309E0029B1A68019B1A60019B043398
:1003E0000193029B04330293039B9B68019A9A42F8
:1003F000F0D305E0019B00221A60019B04330193B6
:10040000039BDB68019A9A42F4D3039B1033039356
:10041000039B044A9342D6D300BF00BF04B0704789
:10042000A0C8010820C90108000000000000000069
:1004300000BF704700000000000000000000000046
:1004400008B5FFF7F5FF00F0F3FE00F0E9FF00F05C
:10045000AFFC01F00DFC00F03BF800BF08BD00BF91
:100460004FF080435B6A1846704700BF00000000F1
:1004700082B001904FF08042019B53634FF0804364
:1004800000221A614FF080430222DA6000BF02B0FE
:10049000704700BF000000000000000000000000E6
:1004A0004FF080430022DA6000BF70470000000078
:1004B00082B001904FF08042019B536300BF02B0B5
:1004C000704700BF000000000000000000000000B6
:1004D00008B501F09DF800BF08BD00BF0000000096
:1004E00008B5FFF7BDFF0346184608BD0000000031
:1004F00000B583B001900198FFF7BAFF00BF03B0C9
:100500005DF804FB00000000000000000000000097
:1005100008B5FFF7C5FF00BF08BD00BF0000000021
:1005200000B583B001900198FFF7C2FF00BF03B090
:100530005DF804FB00000000000000000000000067
:1005400082B00190019B019A1A60019B019A5A6046
:1005500000BF02B0704700BF0000000000000000B4
:1005600082B030230193019B83F3118800BF00BF49
:1005700000BF02B0704700BF000000000000000094
:1005800082B000230193019B83F3118800BF00BF59
:1005900000BF02B0704700BF000000000000000074
:1005A00000B583B00190019B1846FFF7C9FF00BF5B
:1005B00003B05DF804FB00BF000000000000000075
:1005C00008B5FFF7CDFF00BF08BD00BF0000000069
:1005D00008B5FFF7D5FF00BF08BD00BF0000000051
:1005E00000B583B001900198FFF7DAFF00BF03B0B8
:1005F0005DF804FB000000000000000000000000A7
:1006000000B583B0019000910099019802F0B8FF05
:100610000346184603B05DF804FB00BF000000006D
:1006200000B583B0019000910099019802F0C8FFD5
:1006300000BF03B05DF804FB0000000000000000F4
:1006400000B587B0039002910192039B9B68019AC9
:100650009A4202D9039B9B680193039B1A69039BEF
:100660009B69D31A0593019A059B9A420DD2039B6D
:100670009B69019A194602981BF0D6FF039B9A6961
:10068000019B1A44039B9A612BE0019A059B9A42B5
:100690001CD9039B9B69059A194602981BF0C4FF5D
:1006A000029A059B13440293019A059BD31A049363
:1006B000039BDB68049A194602981BF0B5FF039B65
:1006C000DA68049B1A44039B9A610AE0039B9B69C6
:1006D000019A194602981BF0A7FF039BDA68039B57
:1006E0009A61039B9A68019BD21A039B9A60019BB3
:1006F000184607B05DF804FB000000000000000091
:1007000000B587B0039002910192039B9B68019A08
:100710009A4202D9039B9B680193039B1A69039B2E
:100720005B69D31A0593019A059B9A420DD2039BEC
:100730005B69019A029918461BF076FF039B5A6980
:10074000019B1A44039B5A612BE0019A059B9A4234
:100750001CD9039B5B69059A029918461BF064FF3C
:10076000029A059B13440293019A059BD31A0493A2
:10077000039BDB68049A029918461BF055FF039B04
:10078000DA68049B1A44039B5A610AE0039B5B6985
:10079000019A029918461BF047FF039BDA68039BF6
:1007A0005A61039B9A68019BD21A039B9A60019B32
:1007B000184607B05DF804FB0000000000000000D0
:1007C00000B585B00390029101920093039B1846F7
:1007D000FFF706FF039B00229A60039B029ADA60F0
:1007E000039B029A9A61039B029A5A61029A019BA7
:1007F0001A44039B1A61039B009ADA61039B069AD1
:100800001A6200BF05B05DF804FB00BF00000000E5
:1008100000B583B001900B468DF80330019B5A69F7
:10082000019B9B699A4205D1019B9B68002B01D0DB
:10083000012300E0002303F00103DBB283F0010396
:10084000DBB2002B1DD0019B9B685A1C019B9A6058
:10085000019B5B69591C019A51619DF803201A7034
:10086000019B5A69019B1B699A4203D3019BDA6879
:10087000019B5A61019B00211846FFF7D1FE00231E
:1008800001E04FF0FF33184603B05DF804FB00BFF2
:1008900000B585B001900091FFF792FE0CE0019B3E
:1008A00000991846FFF7ACFE0290029B002B03DA7A
:1008B000FFF78EFE029B26E0019B9B68002BEED08B
:1008C000019B9B685A1E019B9A60019B9B69591C66
:1008D000019A91611B788DF80F30019B9A69019BF9
:1008E0001B699A4203D3019BDA68019B9A61019BC1
:1008F000DB69002B03D0019BDB6901989847FFF768
:1009000067FE9DF80F30184605B05DF804FB00BF88
:1009100000B589B00390029101920093039BDB69BB
:100920000793019B0693FFF74BFE24E0019A02997F
:100930000398FFF785FE0590059B002B09D1039BCB
:1009400000991846FFF75CFE0490049B002B12D020
:1009500014E0079B002B02D0079B03989847FFF7F2
:1009600037FE019A059BD31A0193029A059B134403
:100970000293FFF725FE019B002BD7D1FFF728FE3E
:10098000069A019BD31A184609B05DF804FB00BF14
:1009900000B585B00390029101920093039B184625
:1009A000FFF71EFE039B019A9A60039B029ADA608E
:1009B000039B029A9A61039B029A5A61029A019BD5
:1009C0001A44039B1A61039B009ADA61039B069AFF
:1009D0001A6200BF05B05DF804FB00BF0000000014
:1009E00000B587B003900B4601928DF80B30FFF7EE
:1009F000E7FD0CE0039B01991846FFF701FE059007
:100A0000059B002B03DAFFF7E3FD059B25E0039B25
:100A10009B68002BEED0039B9B685A1E039B9A6039
:100A2000039B5B69591C039A51619DF80B201A7056
:100A3000039B5A69039B1B699A4203D3039BDA68A1
:100A4000039B5A61039BDB69002B03D0039BDB698B
:100A500003989847FFF7BCFD0023184607B05DF8E0
:100A600004FB00BF000000000000000000000000C8
:100A700000B585B00190019B5A69019B9B699A4220
:100A800005D1019B9B68002B01D0012300E00023CE
:100A900003F00103DBB283F00103DBB2002B1ED0B5
:100AA000019B9B685A1C019B9A60019B9B69591C86
:100AB000019A91611B788DF80F30019B9A69019B17
:100AC0001B699A4203D3019BDA68019B9A61019BDF
:100AD00000211846FFF7A4FD9DF80F3001E04FF00C
:100AE000FF33184605B05DF804FB00BF00000000AE
:100AF00000B589B00390029101920093039BDB69DA
:100B00000793019B0693FFF75BFD24E0019A02998E
:100B10000398FFF7F5FD0590059B002B09D1039B7A
:100B200000991846FFF76CFD0490049B002B12D02F
:100B300014E0079B002B02D0079B03989847FFF710
:100B400047FD019A059BD31A0193029A059B134412
:100B50000293FFF735FD019B002BD7D1FFF738FD3E
:100B6000069A019BD31A184609B05DF804FB00BF32
:100B700082B030230193019B83F3118800BF00BF33
:100B800000BF02B0704700BF00000000000000007E
:100B900082B000230193019B83F3118800BF00BF43
:100BA00000BF02B0704700BF00000000000000005E
:100BB00082B00190019B019A1A6000BF02B0704799
:100BC00008B5FFF7D5FF00BF08BD00BF000000005B
:100BD00008B5FFF7DDFF00BF08BD00BF0000000043
:100BE00000B583B001900198FFF7E2FF00BF03B0AA
:100BF0005DF804FB000000000000000000000000A1
:100C000000B583B0019000910099019803F090FC29
:100C100000BF03B05DF804FB00000000000000000E
:100C200000B585B0039002910192039B03F130005F
:100C30004FF0FF33019A0299FFF75AFF0346184617
:100C400005B05DF804FB00BF0000000000000000DC
:100C500000B585B0039002910192039B03F10C0053
:100C60004FF0FF33019A0299FFF752FE03461846F0
:100C700005B05DF804FB00BF0000000000000000AC
:100C800000B583B001900B468DF80330019B3033E3
:100C90009DF803104FF0FF321846FFF7A1FE034600
:100CA000184603B05DF804FB0000000000000000DF
:100CB00000B583B00190019B0C334FF0FF31184613
:100CC000FFF7E6FD0346184603B05DF804FB00BFDE
:100CD00000B585B003900B4601928DF80B30039B55
:100CE00030339DF80B10019A1846FFF779FE034642
:100CF000184605B05DF804FB00000000000000008D
:100D000000B583B001900091019B0C330099184607
:100D1000FFF7BEFD0346184603B05DF804FB00BFB5
:100D200000B585B00390029101920093039B03F1FB
:100D30003000009B019A0299FFF7DAFE034618463D
:100D400005B05DF804FB00BF0000000000000000DB
:100D500000B585B00390029101920093039B03F1CB
:100D60000C00009B019A0299FFF7D2FD034618463A
:100D700005B05DF804FB00BF0000000000000000AB
:100D800086B0039002910192039B0593029B002B76
:100D900003D0029B012B03D105E06FF0130303E0A6
:100DA0006FF0130300E00023184606B0704700BF41
:100DB00008B500F08DFD00BF08BD00BF00000000B9
:100DC00000B587B0059004910392059B124A1A6002
:100DD000059B04331846FFF703FF059B01221A7297
:100DE000059B03F10C00059B03F15401059B009347
:100DF000049B1022FFF7E4FC059B03F13000059BE8
:100E000003F16401059B0093039B1022FFF7C0FDD3
:100E100000BF07B05DF804FB20C901080000000016
:100E200000B585B001900091FFF7CAFE00990198C6
:100E300000F07EFD00230393039B002B03D1019B55
:100E400002221A7202E0019B01221A72FFF7C0FE11
:100E5000039B184605B05DF804FB00BF00000000CE
:100E600000B583B001900B468DF80330019B5B69A0
:100E7000002B05D1019B043304211846FFF7C0FE67
:100E8000019B0C339DF8032011461846FFF7C0FC68
:100E90000346002B06DA019B04334FF40061184629
:100EA000FFF7AEFE00BF03B05DF804FB00000000DA
:100EB00082B001900091009BDBB2114A1B01D9B2B4
:100EC000019B134403F540730A461A70019B03F01B
:100ED0001F020B49019B5B09012000FA02F26033FB
:100EE00041F82320019B03F01F020549019B5B0988
:100EF000012000FA02F241F8232000BF02B070473F
:100F000000E100E000000000000000000000000020
:100F100000BF70470000000000000000000000005B
:100F200000BF70470000000000000000000000004B
:100F300000BF70470000000000000000000000003B
:100F400000BF70470000000000000000000000002B
:100F500000BF70470000000000000000000000001B
:100F600000BF70470000000000000000000000000B
:100F700000BF7047000000000000000000000000FB
:100F800000BF7047000000000000000000000000EB
:100F900000BF7047000000000000000000000000DB
:100FA00000BF7047000000000000000000000000CB
:100FB00000BF7047000000000000000000000000BB
:100FC00000BF7047000000000000000000000000AB
:100FD00000BF70470000000000000000000000009B
:100FE00000BF70470000000000000000000000008B
:100FF00008B50C212520FFF75BFF00BF08BD00BF2F
:1010000008B5034800F0DCFC05F07AFE00BF08BD1F
:10101000380900200000000000000000000000006F
:1010200008B50C212620FFF743FF00BF08BD00BF15
:1010300008B5034800F0C4FC05F062FE00BF08BD1F
:10104000B8090020000000000000000000000000BF
:1010500000BF70470000000000000000000000001A
:1010600000BF70470000000000000000000000000A
:1010700000BF7047000000000000000000000000FA
:1010800000BF7047000000000000000000000000EA
:1010900000BF7047000000000000000000000000DA
:1010A00000BF7047000000000000000000000000CA
:1010B00000BF7047000000000000000000000000BA
:1010C00000BF7047000000000000000000000000AA
:1010D00000BF70470000000000000000000000009A
:1010E00008B507211C20FFF7E3FE00BF08BD00BFC5
:1010F00008B500F0CDFA05F003FE00BF08BD00BF43
:1011000000BF704700000000000000000000000069
:1011100000BF704700000000000000000000000059
:1011200000BF704700000000000000000000000049
:1011300000BF704700000000000000000000000039
:1011400000BF704700000000000000000000000029
:1011500000BF704700000000000000000000000019
:1011600008B5FFF7D5FEFFF7DBFEFFF7E1FEFFF75F
:10117000E7FEFFF7EDFEFFF7F3FEFFF7F9FEFFF7DF
:10118000FFFEFFF705FFFFF70BFFFFF711FFFFF76C
:1011900017FFFFF71DFFFFF723FFFFF799FFFFF78B
:1011A0009FFFFFF7ADFFFFF7B3FFFFF7B9FFFFF7B3
:1011B000BFFFFFF7C5FFFFF7CBFFFFF719FFFFF7F3
:1011C0002FFFFFF745FFFFF74BFFFFF751FFFFF73B
:1011D00057FFFFF75DFFFFF763FFFFF769FFFFF7BB
:1011E0006FFF00BF08BD00BF00000000000000004E
:1011F0000D4B1B680C4A43F4807313600B4B1B6F41
:1012000003F44073B3F5007F06D0084B4FF48032EF
:101210001A67064B00221A67034B5B68024A23F4E5
:101220000073536000BF70470070004000380240F8
:1012300008B5264B1B69254A6FEAC3536FEAD3539F
:101240001361224B1B69214AC3F3080313611F4B2F
:101250001B691E4B5B691D4B4FF0FF325A611B4BE4
:101260005B691A4B00225A61184B5B69174B1B6A6A
:10127000164A63F080531362144B1B6A134A03F03F
:1012800080531362114B1B6A104B5B6A0F4B4FF07C
:10129000FF325A620D4B5B6A0C4B00225A620B4BB9
:1012A0005B6A0A4B1B6C094A43F080531364074B7B
:1012B0001B6E064A43F080531366044B1B6EFFF708
:1012C00097FFFFF74DFF00BF08BD00BF0038024089
:1012D0004A4B4FF080521A64494B4FF440421A6017
:1012E000464B1B68454A43F00103136000BF434B64
:1012F0001B6803F00203002BF9D0404B9B683F4A68
:1013000023F00303936000BF3C4B9B6803F00C0386
:10131000002BF9D1394B1B68384A03F0F9031360ED
:10132000364B00229A60354B1B68344A43F48033B5
:10133000136000BF314B1B6803F40033002BF9D05E
:101340002E4B5B6F2D4A43F00103536700BF2B4BBD
:101350005B6F03F00203002BF9D0284B294A5A6037
:10136000264B1B68254A43F08073136000BF244B53
:101370005B6803F48043002BF9D000BF1F4B1B6850
:1013800003F00073002BF9D01C4B1F4A9A601F4BCF
:101390001B681F4A934209D11E4B1B681E4A934289
:1013A00004D11E4B40F205121A6003E01B4B40F2C1
:1013B00005721A6000BF194B1B6803F00F03052B61
:1013C000F9D10E4B9B680D4A43F00203936000BFB6
:1013D0000A4B9B6803F00C03082BF9D1074B5B6C9D
:1013E000064A43F480435364044B5B6E034A43F460
:1013F00080435366014B5B6E00BF7047003802406C
:10140000007000400854400700948838002004E031
:101410001164002000ED00E041C20F41003C024099
:1014200000BF704700000000000000000000000046
:101430008EB0039002910192019B03F003030D9380
:10144000019B9B0803F001030C93019BDB0803F055
:1014500003030B93019B5B0903F003030A93019BB6
:10146000DB0903F00F03089300230993029B03F0A9
:101470000103002B79D0099B03F007039B00089A16
:1014800002FA03F307930122099B02FA03F306937E
:10149000099B5B00032202FA03F30593099B03F007
:1014A00007039B000F2202FA03F30493039B5A687D
:1014B000069BDB431A400C9B1A43039B5A60039B19
:1014C0009A68059BDB431A400B9B1A43039B9A6067
:1014D000039BDA68059BDB431A400A9B1A43039B74
:1014E000DA60019B03F00303022B1FD1099B072B3A
:1014F00009D8039B1A6A049BDB431A40079B1A43D3
:10150000039B1A6208E0039B5A6A049BDB431A4060
:10151000079B1A43039B5A62039B1A68059BDB4394
:101520001A400D9B1A43039B1A601EE0039B1A6826
:10153000059BDB431A400D9B1A43039B1A60099BD2
:10154000072B09D8039B1A6A049BDB431A40079BAD
:101550001A43039B1A6208E0039B5A6A049BDB430D
:101560001A40079B1A43039B5A62029B5B08029333
:10157000029B002B0FD00C9B5B000C930B9B9B00E2
:101580000B930A9B9B000A930D9B9B000D93099B59
:10159000013309936AE700BF0EB0704700000000F6
:1015A00082B030230193019B83F3118800BF00BFF9
:1015B00000BF00BF02B07047000000000000000044
:1015C00082B000230193019B83F3118800BF00BF09
:1015D00000BF00BF02B07047000000000000000024
:1015E00008B5FFF7DDFF00BF08BD00BF0000000029
:1015F00008B5FFF7E5FF00BF08BD00BF0000000011
:1016000008B500F085FC00BF08BD00BF0000000069
:101610001B4B1B6C1A4A43F001031364184B1B6EDF
:10162000174A43F001031366154B1B6E154B9B685D
:10163000144A43F0010393604FF0804342F2CF021B
:101640009A624FF080434FF0FF32DA624FF08043EE
:1016500000229A614FF0804300225A634FF080438A
:101660000022DA604FF0804300225A604FF080433E
:1016700001225A614FF0804301221A6000BF704777
:1016800000380240002004E00000000000000000DC
:1016900000B583B04FF080430193019B1B69009319
:1016A000019BDB68DBB2009A13400093009BDA4396
:1016B000019B1A61009B03F00203002B05D0FFF78A
:1016C0008FFFFFF79DFFFFF793FF00BF03B05DF8AB
:1016D00004FB00BF0000000000000000000000004C
:1016E00082B030230193019B83F3118800BF00BFB8
:1016F00000BF00BF02B07047000000000000000003
:1017000082B000230193019B83F3118800BF00BFC7
:1017100000BF00BF02B070470000000000000000E2
:1017200008B5FFF7DDFF00BF08BD00BF00000000E7
:1017300008B5FFF7E5FF00BF08BD00BF00000000CF
:1017400000B583B0019000910099019802F0F0FE7D
:1017500000BF03B05DF804FB0000000000000000C3
:1017600084B001900091019B5B6F0293019B9A6F83
:10177000009B1B685B081A44009B1B68B2FBF3F3D9
:101780000393009B9B881BB2002B08DA039B23F07A
:1017900007035A00039B03F0070313430393029BC1
:1017A000039A9A60009BDB8843F040039BB21A4681
:1017B000029B1A61009B1B8943F001039BB21A46EE
:1017C000029B5A61009B9B8843F4045343F02C0313
:1017D0009BB21A46029BDA60029B00221A60029BAF
:1017E0001B68029B5B68009B9B8803F4A053B3F5C6
:1017F000806F04D1019B7F2283F87C2003E0019B52
:10180000FF2283F87C2000BF04B070470000000076
:1018100000B585B001900B46ADF80230002303936C
:10182000BDF8023003F00803002B03D0039B43F400
:1018300080730393BDF8023003F00103002B03D043
:10184000039B43F020030393BDF8023003F002032F
:10185000002B03D0039B43F040030393BDF80230F9
:1018600003F00403002B03D0039B43F08003039396
:10187000019B043303991846FFF762FF00BF05B0D0
:101880005DF804FB00000000000000000000000004
:1018900082B00190044BDB68034A43F0C003D3607D
:1018A00000BF02B0704700BF001001400000000000
:1018B00082B00190044BDB68034A43F0C003D3605D
:1018C00000BF02B0704700BF0044004000000000AD
:1018D00008B50C4A00210C48FFF772FA0A4B0B4A74
:1018E0005A67094B0A4A9A670A4A00210A48FFF7D1
:1018F00067FA094B094A5A67074B094A9A6700BFBA
:1019000008BD00BF911800083809002000100140F0
:1019100000BD0105B1180008B809002000440040CE
:1019200080DE8002000000000000000000000000D7
:1019300000B583B001900091009B002B01D1194BA1
:101940000093019B1B7A012B23D1019B164A9342E2
:101950000DD1164B5B6C154A43F010035364134BC7
:101960005B6E124A43F010035366104B5B6E019B93
:101970000F4A93420DD10D4B1B6C0C4A43F40033BC
:1019800013640A4B1B6E094A43F400331366074B7A
:101990001B6E00990198FFF7E3FE00BF03B05DF8EE
:1019A00004FB00BF48C90108380900200038024084
:1019B000B809002000000000000000000000000046
:1019C00000B589B00190019B5B6F0693069BDB68B5
:1019D000ADF81630069B1B68ADF81E30BDF81E3002
:1019E00003F48073002B0ED0FFF79AFE019B0433A3
:1019F0004FF480611846FFF7A3FE069B6FF48072D8
:101A00001A60FFF795FEFFF78BFE24E0BDF81E304D
:101A100003F00F03002B05D0BDF81E3019460198C6
:101A2000FFF7F6FE069B5B68DAB2019B93F87C3009
:101A300013408DF80F30BDF81E3003F02003002B4B
:101A400005D09DF80F3019460198FFF709FA069B5B
:101A50001B68ADF81E30BDF81E3003F02F03002BBD
:101A6000D4D1FFF765FEBDF8163003F08003002BDC
:101A700022D0BDF81E3003F08003002B1CD0FFF7EE
:101A80004FFE019B30331846FEF7F2FF0490049B93
:101A9000002B0CDA019B043308211846FFF750FE97
:101AA000BDF8163023F08002069BDA6002E0049A4B
:101AB000069B5A60FFF73CFEBDF8163003F040036A
:101AC000002B27D0BDF81E3003F04003002B21D09F
:101AD000FFF726FE019B5A6C019B9B6C9A4205D135
:101AE000019B9B6B002B01D0012300E0002303F03E
:101AF0000103DBB2002B0BD0019B043310211846ED
:101B0000FFF71EFEBDF8163023F04002069BDA6098
:101B1000FFF70EFE00BF09B05DF804FB00000000F7
:101B200082B001900091009B5A68019B5A60009B13
:101B30009A68019B9A60009BDA68019BDA60009BBF
:101B40001A69019B5A61009B5A69019B1A62009BAA
:101B50009A69019B5A62009B1A68019B1A6000BF38
:101B600002B070470000000000000000000000000C
:101B700008B5254B1B69244A6FEA53236FEA4323B8
:101B80001361214B1B69204A23F4FF7323F00103E7
:101B900013611D4B1B691C4B1B6B1B4A6FEA5323C4
:101BA0006FEA43231363184B1B6D174A6FEA5323E5
:101BB0006FEA43231365144B1B6D14491448FFF758
:101BC000AFFF14491448FFF7ABFF14491448FFF75F
:101BD000A7FF14491448FFF7A3FF14491448FFF75F
:101BE0009FFF14491448FFF79BFF14491448FFF75F
:101BF00097FF14491448FFF793FF14491448FFF75F
:101C00008FFF00BF08BD00BF0038024054C9010863
:101C10000000024070C90108000402408CC901089C
:101C200000080240A8C90108000C0240C4C901080C
:101C300000100240E0C9010800140240FCC901087C
:101C40000018024018CA0108001C024034CA0108EA
:101C50000020024000000000000000000000000022
:101C600008B5FFF785FFFFF733FB00BF08BD00BFD6
:101C700000BF7047000000000000000000000000EE
:101C800000B58BB00190019B00221A6002AB184690
:101C900001F0FEFC0423099302AB184601F018FD85
:101CA00002AB184601F024FD099B013B0993099BF7
:101CB000002BF1D1029A019B1A6000BF0BB05DF8B6
:101CC00004FB00BF00000000000000000000000056
:101CD00082B030230193019B83F3118800BF00BFC2
:101CE00000BF02B0704700BF00000000000000000D
:101CF00082B000230193019B83F3118800BF00BFD2
:101D000000BF02B0704700BF0000000000000000EC
:101D100082B030230193019B83F3118800BF00BF81
:101D200000BF00BF02B070470000000000000000CC
:101D300082B000230193019B83F3118800BF00BF91
:101D400000BF00BF02B070470000000000000000AC
:101D500008B503F0BDF903F053FA04F0B9FC00BF75
:101D600008BD00BF000000000000000000000000EF
:101D700000B583B0114B01221A700023019308E0D3
:101D80000E4A019B9B00134400225A60019B0133C1
:101D90000193019B002BF3D00948FFF771FFFFF778
:101DA000D7FF0849084800F0FBFF044B02221A70D5
:101DB000FFF79EFF00BF03B05DF804FB380A002068
:101DC000400A00205CD40108480A002000000000FE
:101DD00082B0019072B600BF00BF044A019BC2F8F6
:101DE0008430034B03221A70FEE700BF480A00202C
:101DF000380A002000000000000000000000000081
:101E000088B00190414B0393019B03F00103002B29
:101E100022D000230793039B1B68069305E0079BD2
:101E200001330793069B1B680693039B069A9A420D
:101E3000F5D1039B5B68069305E0079B013B079385
:101E4000069B5B680693039B069A9A42F5D1079B13
:101E5000002B01D0012355E0019B03F00203002B6E
:101E600024D000230793039B1B69059305E0079B80
:101E700001330793059B1B680593039B1033059A59
:101E80009A42F4D1039B5B69059305E0079B013BF4
:101E90000793059B5B680593039B1033059A9A4251
:101EA000F4D1079B002B01D001232BE0019B03F011
:101EB0000403002B25D0039B2833029300230793B0
:101EC000029B1B68049305E0079B01330793049B67
:101ED0001B680493049A029B9A42F5D1029B5B68AB
:101EE000049305E0079B013B0793049B5B68049305
:101EF000049A029B9A42F5D1079B002B01D0012343
:101F000000E00023184608B0704700BF480A0020D0
:101F100008B500F0EDFA00BF08BD00BF00000000EA
:101F200000B587B0EFF311830393039B0293029BE9
:101F30000593059B0493049B002B0CBF01230023F6
:101F4000DBB2002B11D0EFF305830193019BC3F3A8
:101F50000803002B14BF01230023DBB2002B02D0A7
:101F6000FFF7D6FE01E0FFF7B3FE059B184607B06A
:101F70005DF804FB0000000000000000000000000D
:101F800000B585B00190019B0393039B002B0CBF10
:101F900001230023DBB2002B13D0EFF30583029360
:101FA000029BC3F30803002B14BF01230023DBB201
:101FB000002B02D0FFF7BCFE03E000F0D9FDFFF7D5
:101FC00097FE00BF05B05DF804FB00BF00000000F5
:101FD00082B00190044B5A6B019B1343024A536336
:101FE00000BF02B0704700BF480A00200000000098
:101FF00082B001900091019A009B1344184602B0F0
:10200000704700BF0000000000000000000000005A
:1020100082B001900091009A019BD31A184602B039
:10202000704700BF0000000000000000000000003A
:1020300082B00190019B1B68019A9A420CBF012358
:102040000023DBB2184602B0704700BF000000005A
:1020500082B001900091019B1B68009A9A420CBFCC
:1020600001230023DBB2184602B0704700000000D5
:1020700084B0039002910192029B019A9A60029BA4
:10208000039A5A60029B5B681A68029B1A60029B63
:102090001B68029A5A60039B029A1A6000BF04B040
:1020A000704700BF000000000000000000000000BA
:1020B00084B0039002910192029B019A9A60029B64
:1020C000039A1A60029B1B685A68029B5A60029B23
:1020D0005B68029A1A60039B029A5A6000BF04B0C0
:1020E000704700BF0000000000000000000000007A
:1020F00000B587B0039002910192039B1B68059382
:1021000007E0059B9B68019AD31A0193059B1B6806
:102110000593059B9B68019A9A428CBF012300237B
:10212000DBB2002BEDD1019A02990598FFF7C0FFB1
:10213000059B9A68019BD21A059B9A60039B4FF0FE
:10214000FF329A6000BF07B05DF804FB000000009A
:1021500084B00190019B1B680393039B1A68019B49
:102160001A60019B1B68019A5A60039B184604B0D1
:10217000704700BF000000000000000000000000E9
:1021800082B00190019B5B68019A12681A60019B02
:102190001B68019A52685A60019B184602B070474A
:1021A00000B583B001900198FEF7A2F900BF03B01B
:1021B0005DF804FB000000000000000000000000CB
:1021C00008B5FEF7A5F900BF08BD00BF000000007C
:1021D00000B583B001900198FEF7A2F900BF03B0EB
:1021E0005DF804FB0000000000000000000000009B
:1021F00008B5FEF775F90346184608BD0000000053
:1022000082B030230193019B83F3118800BF00BF8C
:1022100000BF00BF02B070470000000000000000D7
:1022200082B000230193019B83F3118800BF00BF9C
:1022300000BF00BF02B070470000000000000000B7
:1022400008B5FFF7D5FF0346184608BD000000009B
:1022500000B587B00190009102230593009A059B79
:102260009A4201D2059B009300990198FFF7C0FEA6
:1022700003461846FFF7ACFFFFF7E2FF049004990E
:102280000198FFF7C5FE0390039A009B9A4234BF62
:1022900001230023DBB2002B07D1059B01330593FB
:1022A000049B0193059B0093DEE700BF059B022B77
:1022B00002D90120FFF78CFE00BF07B05DF804FBD8
:1022C00000B587B00390029101920093039B019A9D
:1022D000DA60039B0299009A1846FFF7C9FE0223B1
:1022E0000593009A059B9A4201D2059B0093039B9C
:1022F000DB6800991846FFF77BFE03461846FFF798
:102300004FFFFFF79DFF049004990198FFF780FEAF
:102310000246009B93428CBF01230023DBB2002BBB
:102320000FD1059B0133059305990198FFF760FED6
:1023300003461846FFF74CFF049B0193059B00934F
:10234000DFE700BF059B022B02D90120FFF740FE0B
:1023500000BF07B05DF804FB0000000000000000B3
:1023600000B589B0039002910192FFF769FF0690D2
:10237000039B1846FFF75CFE0346002B06D0019B2B
:10238000069A02990398FFF79BFF20E0039BDB6806
:1023900006991846FFF73CFE0590059A019B1344E9
:1023A0000793079A059B9A4201D2019B0793039BCF
:1023B0001B689B68079A9A4203D201990698FFF717
:1023C00047FF039B0299079A1846FFF791FE09B051
:1023D0005DF804FB000000000000000000000000A9
:1023E00000B587B00390029101920093094B0593C9
:1023F000039B009A1A61039B019ADA60039B0022F7
:102400005A61029A03990598FFF7AAFF00BF07B027
:102410005DF804FB580A00200000000000000000E6
:1024200000B587B001902E4B0593059B019A11468C
:102430001846FFF70DFE034683F00103DBB2002BC5
:1024400014D0019B1846FFF79BFE019B1B689968FF
:10245000019B9A68019B1B680A449A60019B0022B9
:102460001A60059B4FF0FF329A6035E0059B1846D5
:10247000FFF76EFE019B00221A60059B1846FFF7CE
:10248000D7FD0346002B02D0FFF79AFE24E0059B00
:102490001B689968019B9A68059B1B680A449A60AF
:1024A000FFF7CEFE0490059BDB6804991846FFF702
:1024B000AFFD0390059B1B689B68039A9A420AD262
:1024C000059B1B689A68039BD31A02930299049890
:1024D000FFF7BEFE00E000BF07B05DF804FB00BFE1
:1024E000580A00200000000000000000000000006A
:1024F00000B589B04C4B0593059B1B680493FFF70F
:102500009FFE0390059BDB6803991846FFF780FD4B
:102510000290049B9B68029A9A4266D3059BDA68F4
:10252000049B9B6819461046FFF762FD0190059BCE
:10253000019ADA60049B1846FFF722FE049B0022F2
:102540001A60059B1846FFF773FD0346002B01D068
:10255000FFF736FEFFF764FE049BDB68049A1269FE
:10256000114604989847FFF74BFE049B5B69002BCC
:1025700014BF01230023DBB2002BBDD0FFF760FEA8
:10258000039003990198FFF743FD0290049B5B6958
:10259000029A9A4205D90220FFF71AFD00230693FA
:1025A00004E0049B5A69029BD31A0693059B1846C4
:1025B000FFF73EFD0346002B06D0069B039A0499C5
:1025C0000598FFF77DFE2CE0029A069B13440793C3
:1025D000079A029B9A4201D2069B0793059B049996
:1025E000079A1846FFF784FD86E700BF059B18464B
:1025F000FFF71EFD0346002B12D1059BDA68029BF4
:102600001A44059BDA60049B9A68029BD21A049BC9
:102610009A60049B9B6819460398FFF719FE00E037
:1026200000BF09B05DF804FB580A0020000000005C
:10263000F0B587B0124B0593FFF702FE0490059B9F
:10264000D3E90823CDE90223029B04991846FFF73A
:10265000DFFC034600221C461546DDE9022316195D
:1026600043EB0507CDE900670599DDE90023C1E9E2
:102670000823DDE900231046194607B0F0BD00BF6E
:10268000480A0020000000000000000000000000D8
:1026900082B00190019B5B68019A12681A60019BED
:1026A0001B68019A52685A60019B184602B0704735
:1026B00084B00190019B1B680393039B1A68019BE4
:1026C0001A60019B1B68019A5A60039B184604B06C
:1026D000704700BF00000000000000000000000084
:1026E00082B001900091019B1B680193019B9A6845
:1026F000009B9B689A422CBF01230023DBB2002B76
:10270000F1D1009B019A1A60019B5A68009B5A60A4
:10271000009B5B68009A1A60019B009A5A60009BBC
:10272000184602B0704700BF000000000000000023
:1027300082B001900091019B1B680193019B9A68F4
:10274000009B9B689A428CBF01230023DBB2002BC5
:10275000F1D1009B019A1A60019B5A68009B5A6054
:10276000009B5B68009A1A60019B009A5A60009B6C
:10277000184602B0704700BF0000000000000000D3
:1027800082B030230193019B83F3118800BF00BF07
:1027900000BF00BF02B07047000000000000000052
:1027A00082B000230193019B83F3118800BF00BF17
:1027B00000BF00BF02B07047000000000000000032
:1027C00082B00190019B1B68002B14BF01230023E2
:1027D000DBB2184602B070470000000000000000A5
:1027E00082B00190019B9B685A1C019B9A6000BFBC
:1027F00002B0704700000000000000000000000070
:1028000000B583B00190019B002283F82420019B36
:102810009B691A46019B19461046FFF761FF034664
:10282000184603B05DF804FB000000000000000043
:1028300000B583B00190019B002283F82420019B06
:102840009B691A46019B19461046FFF771FF034624
:10285000184603B05DF804FB000000000000000013
:1028600000B587B0154B0593059BDB680493059B6A
:102870001846FFF71DFF0390039B012283F82420D5
:10288000059B039ADA600498FFF7BAFF0490EFF310
:1028900009830193019B0293029BA3F12402049BF1
:1028A0001B6A9A4202D20648FFF792FA04990398EB
:1028B000FDF706FD00BF07B05DF804FB480A0020E5
:1028C00070D40108000000000000000000000000BB
:1028D00000B587B0154B0593059BDB680493059BFA
:1028E0001846FFF7E5FE0390039B012283F824209E
:1028F000059B039ADA600498FFF79AFF0490EFF3C0
:1029000009830193019B0293029BA3F12402049B80
:102910001B6A9A4202D20648FFF75AFA04990398B2
:10292000FDF7CEFC00BF07B05DF804FB480A0020AD
:1029300070D401080000000000000000000000004A
:1029400000B585B001900091009B0393FFF718FF3D
:10295000039B93F824300C2B2ED801A252F823F0BD
:1029600095290008B9290008B92900089B29000801
:10297000AF290008A5290008B9290008AF290008D7
:10298000B9290008B9290008B9290008B92900089F
:10299000AF290008FFF704FF19E0039B9B6A0022A0
:1029A0001A600AE0039B9B6A1846FFF719FF039B16
:1029B0001846FFF76DFE00E000BF039B4FF0FF32AB
:1029C0009A620398FFF71CFFFFF7EAFE00BF05B00D
:1029D0005DF804FB000000000000000000000000A3
:1029E00000B583B001900198FFF70AFF034618462F
:1029F00003B05DF804FB00BF000000000000000011
:102A000000B589B003468DF80730164B0693069B38
:102A1000DB680593059B9DF8072083F82420069B1F
:102A20001846FFF745FE0790079B012283F82420F4
:102A3000069B079ADA60EFF309830393039B0493E1
:102A4000049BA3F12402059B1B6A9A4202D206480A
:102A5000FFF7BEF905990798FDF732FC00BF09B0F2
:102A60005DF804FB480A002070D401080000000053
:102A700000B58BB0034600918DF80730144BDB682E
:102A80000993009BB3F1FF3F16D003A8099B114A9D
:102A90000099FFF7A5FC9DF807301846FFF7B0FF37
:102AA00003AB1846FFF78CFE0346002B09D003AB9F
:102AB0001846FFF7B5FC04E09DF807301846FFF70D
:102AC0009FFF099B9B6A18460BB05DF804FB00BF93
:102AD000480A002041290008000000000000000012
:102AE00000B587B0019000911C4B0493049BDB68F8
:102AF0000593019B009A9A62019B9A68059B9B68CB
:102B00009A4294BF01230023DBB2002B03D001982B
:102B1000FFF776FE1DE00598FFF78AFE0590019B02
:102B2000012283F82420049B019ADA60EFF30983E1
:102B30000293029B0393039BA3F12402059B1B6A50
:102B40009A4202D20648FFF743F905990198FDF72A
:102B5000B7FB00BF07B05DF804FB00BF480A0020C8
:102B600070D4010800000000000000000000000018
:102B700000B583B00B4B0193019BDB680093019B75
:102B80001B689A68009B9B689A428CBF01230023B4
:102B9000DBB2002B01D0FFF79BFE00BF03B05DF856
:102BA00004FB00BF480A00200000000000000000F5
:102BB00084B00B4B0393039BDB680293039B1B685E
:102BC0009B680193029B9B680093019A009B9A4229
:102BD0008CBF01230023DBB2184604B0704700BF4E
:102BE000480A002000000000000000000000000073
:102BF00000B587B0154B0593059BDB680493059BD7
:102C00001846FFF755FD0390039B012283F824200B
:102C1000059B039ADA600498FFF70AFE0490EFF32D
:102C200009830193019B0293029BA3F12402049B5D
:102C30001B6A9A4202D20648FFF7CAF80499039821
:102C4000FDF73EFB00BF07B05DF804FB480A00201B
:102C500070D4010800000000000000000000000027
:102C600000B583B00B4B0193019BDB680093019B84
:102C70001B689A68009B9B689A422CBF0123002323
:102C8000DBB2002B01D0FFF7EBFD00BF03B05DF816
:102C900004FB00BF480A0020000000000000000004
:102CA00082B00190019B00221A6000BF02B0704701
:102CB00082B00190019B00221A6000BF02B07047F1
:102CC00082B00190019B019A1A60019B019A5A609F
:102CD00000BF02B0704700BF00000000000000000D
:102CE00082B00190019B019A1A60019B019A5A607F
:102CF000019B00229A6000BF02B0704700000000F4
:102D000082B00190019B019A1A60019B019A5A605E
:102D1000019B4FF0FF329A6000BF02B0704700BFC6
:102D200008B5FDF7DDFB0346184608BD00000000AE
:102D300008B5FFF7F5FF0346184608BD0000000080
:102D400030B583B00190019B1846FFF7D9FF019B76
:102D50000022DA60FFF7ECFF034600221C4615460E
:102D6000019BC3E9044500BF03B030BD0000000073
:102D700000B583B00190019B1846FFF7A1FF00BF8B
:102D800003B05DF804FB00BF00000000000000007D
:102D900082B0019000BFFDE70000000000000000CD
:102DA00000B58BB00190009100230993284A099B3C
:102DB0009B001344019A5A60019B099A1A63019B74
:102DC000009A9A63019803F06BFF019B1846FFF786
:102DD00087FF019B28331846FFF7CAFF019B343356
:102DE0001846FFF75DFF019B10331846FFF7A8FF59
:102DF000019B84331846FFF75BFF019B03F13C0105
:102E00008023144A019800F03BF90246019BDA60E6
:102E1000019BDB68009A52681A62019BDB68012201
:102E200083F824200C4B0393009BDB680493009BE6
:102E30001B69059301230693084B0793002308930E
:102E400003AB184600F08CF900BF0BB05DF804FB33
:102E5000380A002090D4010880D40108912D000880
:102E600082B001900091009A019BD31A184602B0DB
:102E7000704700BF000000000000000000000000DC
:102E800082B00190019B019A1A6000BF02B07047A6
:102E900082B00190019B1B68019A9A4214BF0123E2
:102EA0000023DBB2184602B0704700BF00000000EC
:102EB00082B001900091019B1A68009B1A60019BEF
:102EC000009A1A6000BF02B0704700BF0000000007
:102ED00084B00190019B1B680393039B1A68019BBC
:102EE0001A60039B184604B0704700BF0000000042
:102EF00082B00190019B019A1A60019B019A5A606D
:102F000000BF02B0704700BF0000000000000000DA
:102F100082B00190019B1B68019A9A4214BF012361
:102F20000023DBB2184602B0704700BF000000006B
:102F300082B001900091009B019A1A60019B5A682F
:102F4000009B5A60009B5B68009A1A60019B009A84
:102F50005A6000BF02B0704700000000000000008F
:102F600084B00190019B1B680393039B1A68019B2B
:102F70001A60019B1B68019A5A60039B184604B0B3
:102F8000704700BF000000000000000000000000CB
:102F900082B00190019B5B68019A12681A60019BE4
:102FA0001B68019A52685A60019B184602B070472C
:102FB00008B5FDF795FA0346184608BD0000000065
:102FC00082B030230193019B83F3118800BF00BFBF
:102FD00000BF02B0704700BF00000000000000000A
:102FE00082B000230193019B83F3118800BF00BFCF
:102FF00000BF02B0704700BF0000000000000000EA
:1030000008B5FFF7D5FF0346184608BD00000000CD
:10301000014BDB6818467047480A0020000000009A
:1030200082B00190019B1B6A184602B0704700BF36
:1030300000B583B0019001990820FFF719FD00BF8A
:1030400003B05DF804FB00BF0000000000000000BA
:1030500000B585B001900091019B1846FFF780FFF5
:103060000390039B009A9A620398FFF7B9FC00BF94
:1030700005B05DF804FB00BF000000000000000088
:1030800000B585B00390029101920093029B009AD3
:103090009A60029B022283F82420029B002283F87C
:1030A0002520029B039A9A61029B009A1A64029B54
:1030B0000022DA63029B00229A63029B012283F8BA
:1030C0002620029B019ADA61039B03F12802029BEE
:1030D000103319461046FFF72BFF029B2C3318467E
:1030E000FFF7CEFE029B30331846FFF701FF029B2D
:1030F000184605B05DF804FB000000000000000069
:1031000000B585B00190019B9B68483B0393019BF0
:103110005A68039B1A62039BA3F12402039BDA60A3
:10312000019B1A69039BDB681A60019B5A69039B28
:10313000DB685A60039BDB68074A1A62019B1A68C6
:10314000019BDB6803990548FFF79AFF0346184681
:1031500005B05DF804FB00BFD1020008480A00205A
:1031600000B583B001900198FFF7CAFF03461846E7
:10317000FFF736FC0346184603B05DF804FB00BFBA
:1031800000B585B00190FFF71BFF0198FFF7B8FF6E
:10319000039000210398FFF7A3FCFFF721FF039B97
:1031A000184605B05DF804FB0000000000000000B8
:1031B00000B587B00390029101920093FFF700FFE2
:1031C000029B483B039A13440593059B039A1A629A
:1031D000059BA3F12402059BDA60059BDB68009A3E
:1031E0001A60059BDB68089A5A60059BDB680A4AEF
:1031F0001A62019B094A05990948FFF741FF0590AA
:1032000000210598FFF76CFCFFF7EAFE059B1846C6
:1032100007B05DF804FB00BFD102000888D40108A4
:10322000480A00200000000000000000000000002C
:1032300010B582B00190FFF7C3FE019B93F82630D2
:10324000013BDAB2019B83F82620019B93F82630DC
:10325000002B29D1019B93F824300F2B24D1019B03
:1032600010331846FFF794FEFFF7BAFE019B93F860
:10327000253003F00303012B02D0022B08D012E00B
:103280000198FFF7CDFE0346184602F0D1F80AE098
:10329000019B5C6C0198FFF7C3FE0346194620466C
:1032A00002F05EFA00BF01E0FFF79AFE02B010BD27
:1032B00000B583B00190FFF783FE019800F008F895
:1032C00000BF03B05DF804FB000000000000000038
:1032D00000B585B00190FFF79BFE0390039B019A18
:1032E0009A6208E0039B2C331846FFF7F1FD034672
:1032F0001846FFF775FB039B2C331846FFF7C8FDF4
:103300000346002BEED1039B93F82630002B0CBF15
:1033100001230023DBB2002B10D0039B93F8253050
:1033200003F00303002B0CBF01230023DBB2002BAF
:1033300004D0039B10331846FFF72AFE0F20FFF737
:103340005FFB00BF05B05DF804FB00BF000000009C
:1033500000B585B00190FFF75BFE0290FFF730FEED
:10336000019B93F824300F2B14BF01230023DBB201
:10337000002B09D0019B2C33029A11461846FFF707
:1033800097FD0920FFF73CFB019B9B6A0393FFF726
:1033900027FE0198FFF74CFF039B184605B05DF828
:1033A00004FB00BF0000000000000000000000005F
:1033B00000B585B00190FFF72BFE0390FFF700FEEC
:1033C000039B1B6C0293039B9A68039B1B6C9A42A2
:1033D00004D0039B9B68019A9A4202D9039B019AED
:1033E0009A60039B019A1A64FFF7C2FBFFF7F8FD8E
:1033F000029B184605B05DF804FB00BF000000000A
:1034000000B583B00190FFF7DBFD019B93F82530F9
:1034100043F00403DAB2019B83F82520FFF7E0FDB7
:1034200000BF03B05DF804FB0000000000000000D6
:1034300000B583B00190FFF7C3FD0198FFF7F8FDD9
:10344000FFF7CEFD00BF03B05DF804FB00000000F5
:1034500000B585B00190FFF7B3FDFFF7D1FD03463E
:1034600001991846FFF7FCFC0390039B002B14BF47
:1034700001230023DBB2002B02D00398FFF7D8FD15
:10348000FFF7AEFD00BF05B05DF804FB00000000D3
:1034900008B5FFF795FDFFF7E3FBFFF7A1FD00BFC0
:1034A00008BD00BF00000000000000000000000098
:1034B00000B585B001900091FFF7AAFD0390009B35
:1034C000002B0CBF01230023DBB2002B02D04FF0F6
:1034D000FF330AE0019B039A1A60039B019A9A62E8
:1034E00000990320FFF7C4FA0346184605B05DF8BB
:1034F00004FB00BF0000000000000000000000000E
:1035000000B585B001900091019B1B68002B0BD08A
:10351000019B1B680393019B00221A60039B009A86
:103520009A620398FFF75CFA00BF05B05DF804FBF0
:1035300000B585B001900091019B1B68002B09D05C
:10354000019B1B680393019B00221A60009903985A
:10355000FFF7C6FA00BF05B05DF804FB00000000ED
:1035600000B583B001900091FFF72AFD0099019802
:10357000FFF7DEFFFFF734FD00BF03B05DF804FB8B
:1035800000B585B001900091FFF742FD0390009BCC
:10359000002B0CBF01230023DBB2002B02D04FF025
:1035A000FF3309E0019B03991846FFF7C1FC00991E
:1035B0000420FFF75DFA0346184605B05DF804FBEA
:1035C00000B583B001900091019B1846FFF7A0FC65
:1035D0000346002B03D000990198FFF739FD00BF87
:1035E00003B05DF804FB00BF000000000000000015
:1035F00000B583B00190009103E000990198FFF7B6
:1036000027FD019B1846FFF783FC0346002BF4D1EE
:1036100000BF00BF03B05DF804FB00BF0000000066
:10362000F0B484B0039002910192039BDB685A1CB2
:10363000039BDA60039B9B68029AD21A019BD21A01
:10364000039B9A60039BD3E90423039989680020B4
:103650000C460546161943EB0507039BC3E90467AF
:10366000039B9A68039B5B689A4203D9039B9A6801
:10367000039B5A60039B9A68039B1B689A4203D280
:10368000039B9A68039B1A6000BF04B0F0BC7047AC
:1036900082B00190019B4FF0FF321A60019B002223
:1036A0005A60019B00229A60019B0022DA60019916
:1036B0004FF000024FF00003C1E9042300BF02B045
:1036C000704700BF00000000000000000000000084
:1036D00082B00190034B5A68019B9A6000BF02B010
:1036E000704700BF001000E0000000000000000074
:1036F00000B583B00190064B5B68064A9268194694
:103700000198FFF78DFF00BF03B05DF804FB00BF19
:10371000001000E0380A0020000000000000000057
:1037200082B00190019B019A1A60019B019A5A6034
:1037300000BF02B0704700BF0000000000000000A2
:1037400082B00190019B1B68019A9A4214BF012329
:103750000023DBB2184602B0704700BF0000000033
:1037600082B001900091009B019A1A60019B5A68F7
:10377000009B5A60009B5B68009A1A60019B009A4C
:103780005A6000BF02B07047000000000000000057
:1037900084B00190019B1B680393039B1A68019BF3
:1037A0001A60019B1B68019A5A60039B184604B07B
:1037B000704700BF00000000000000000000000093
:1037C00084B00190019B5B680393039B5A68019B43
:1037D0005A60019B5B68019A1A60039B184604B00B
:1037E000704700BF00000000000000000000000063
:1037F00082B030230193019B83F3118800BF00BF87
:1038000000BF02B0704700BF0000000000000000D1
:1038100082B000230193019B83F3118800BF00BF96
:1038200000BF02B0704700BF0000000000000000B1
:10383000014BDB6818467047480A00200000000072
:1038400000B583B001900091019B1846FFF768FF17
:10385000019B009A9A6000BF03B05DF804FB00BFB3
:1038600000B585B0039002910192FFF7C1FF019A64
:103870000299039800F00CF8FFF77AF9FFF7C8FFF8
:1038800000BF05B05DF804FB000000000000000070
:1038900000B585B0039002910192039B029A9A6051
:1038A0000AE0039B1846FFF78BFF03461846FFF715
:1038B00097F80246019B9362039B1846FFF740FF6F
:1038C0000346002BEDD100BF00BF05B05DF804FB3F
:1038D00000B585B00190FFF78BFF019800F008F864
:1038E0000390FFF795FF039B184605B05DF804FBB6
:1038F00000B585B00190019B9B685A1E019B9A60A0
:10390000019B9B68002B11DAFFF792FF0390039B4A
:10391000019A9A62019B039A11461846FFF720FF0D
:103920000520FFF76DF8039B9B6A00E00023184613
:1039300005B05DF804FB00BF0000000000000000BF
:1039400000B585B001900091FFF752FF00990198F2
:1039500000F00EF80390FFF75BFF039B184605B0DD
:103960005DF804FB00000000000000000000000003
:1039700000B585B001900091019B9B685A1E019B88
:103980009A60019B9B68002B21DA009B002B0CBFE7
:1039900001230023DBB2002B07D0019B9B685A1C3C
:1039A000019B9A604FF0FF3312E0FFF741FF039055
:1039B000039B019A9A62019B039A11461846FFF7EE
:1039C000CFFE00990520FFF753F8034600E00023DF
:1039D000184605B05DF804FB000000000000000080
:1039E00000B583B00190FFF703FF019B9B685A1C51
:1039F000019B9A60019B9B68002B08DC019B184689
:103A0000FFF7C6FE034600211846FFF769F8FFF7E7
:103A1000FFFE00BF03B05DF804FB00BF0000000024
:103A200000B585B00190019B9B685A1C019B9A6070
:103A3000019B9B68002B0ADC019B1846FFF7A8FE40
:103A40000390039B00229A620398FEF7C9FF00BF10
:103A500005B05DF804FB00BF00000000000000009E
:103A600000B583B00190009116E0019B9B685A1C41
:103A7000019B9A60019B9B68002B0ADC019B184606
:103A8000FFF786FE03461846FEF7AAFF034600220C
:103A90009A62009B013B0093009B002BE5DC00BF7A
:103AA00000BF03B05DF804FB000000000000000050
:103AB00000B585B001900091FFF79AFE019B9B68CD
:103AC0005A1C019B9A60019B9B68002B0ADC019B9E
:103AD0001846FFF75DFE03461846FEF781FF0346D2
:103AE00000229A62009B9B685A1E009B9A60009B72
:103AF0009B68002B12DAFFF79BFE0290009B029A54
:103B000011461846FFF72CFE029B009A9A62052088
:103B1000FEF776FF029B9B6A039303E0FFF728F80A
:103B200000230393FFF774FE039B184605B05DF86E
:103B300004FB00BF000000000000000000000000C7
:103B400082B00190019B019A1A60019B019A5A6010
:103B500000BF02B0704700BF00000000000000007E
:103B600082B00190019B1B68019A9A4214BF012305
:103B70000023DBB2184602B0704700BF000000000F
:103B800084B00190019B1B680393039B1A68019BFF
:103B90001A60019B1B68019A5A60039B184604B087
:103BA000704700BF0000000000000000000000009F
:103BB00082B00190019B5B68019A12681A60019BB8
:103BC0001B68019A52685A60019B184602B0704700
:103BD00082B030230193019B83F3118800BF00BFA3
:103BE00000BF02B0704700BF0000000000000000EE
:103BF00082B000230193019B83F3118800BF00BFB3
:103C000000BF02B0704700BF0000000000000000CD
:103C100084B001900091019B0393039B1B68039365
:103C2000039A019B9A4205D0039B9A68009B9B686C
:103C30009A42F2D2009B039A1A60039B5A68009B37
:103C40005A60009B5B68009A1A60039B009A5A6056
:103C500000BF04B0704700BF00000000000000007B
:103C6000014BDB6818467047480A0020000000003E
:103C700000B583B00190019B1846FFF771FF034622
:103C8000184603B05DF804FB0000000000000000CF
:103C900000B583B00190019B1846FFF751FF019BCF
:103CA00000229A6000BF03B05DF804FB0000000032
:103CB00000B583B00190FFF78BFF019800F008F882
:103CC000FFF796FF00BF03B05DF804FB00000000A3
:103CD00010B584B00190FFF7C3FF0390019B9B6870
:103CE000002B4ED0019B9B68029337E0039B9A68A0
:103CF000029B9A60029B93F82430072B16D0072B67
:103D00002ADC002B1FD0062B26D1029B9B6A1C4667
:103D1000029B1846FFF74CFF034619462046FFF763
:103D200077FF029B9B6A9B68029317E0029B9B6A4A
:103D30001C46029B1846FFF73BFF034619462046E8
:103D4000FFF766FF09E0029B1846FFF731FF0346C5
:103D50001846FEF745FE00E000BF05E0029B9A68AA
:103D6000039B9B689A42C1D3019B039A1146184654
:103D7000FFF74EFF039B019A9A620620FEF740FE72
:103D800009E0019B039A9A60039BDA6B019BDA605E
:103D9000039B019ADA6300BF04B010BD000000006D
:103DA00000B585B00190FFF713FF019800F010F8FF
:103DB00003468DF80F30FFF71BFF9DF80F301846B4
:103DC00005B05DF804FB00BF00000000000000002B
:103DD00000B585B00190FFF743FF0390019B9B68FE
:103DE000002B01D000230AE0019B039A9A60039BF9
:103DF000DA6B019BDA60039B019ADA6301231846B0
:103E000005B05DF804FB00BF0000000000000000EA
:103E100000B587B00190FFF723FF0390FFF7D8FEAE
:103E2000019BDA68039BDA630198FFF721FF0346E1
:103E3000002B34D0039B1B6C0593039BDB6B04931B
:103E400012E00498FFF714FF0346002B09D0049BEF
:103E50001B689B68059A9A4203D2049B1B689B6867
:103E60000593049BDB680493049B002BE9D1039B1F
:103E7000059A9A60019B1846FFF782FE0290019B0B
:103E8000029A9A60029BDA6B019BDA60029B019AAC
:103E9000DA630298FEF7A4FDFEF76AFE02E0019BDA
:103EA00000229A60FFF7A4FE00BF07B05DF804FB94
:103EB00000B587B00190FFF7D3FE0390019BDA684D
:103EC000039BDA630198FFF7D3FE0346002B32D041
:103ED000039B1B6C0493039BDB6B059312E005981B
:103EE000FFF7C6FE0346002B09D0059B1B689B68A5
:103EF000049A9A4203D2059B1B689B680493059B16
:103F0000DB680593059B002BE9D1039B049A9A601B
:103F1000019B1846FFF734FE0290019B029A9A60BB
:103F2000029BDA6B019BDA60029B019ADA630298CA
:103F3000FEF756FD02E0019B00229A6000BF07B029
:103F40005DF804FB0000000000000000000000001D
:103F500000B585B0FFF784FE0390039BDB6B002B5D
:103F60002CD0039BDB6B0293029BDA68039BDA6322
:103F70000298FFF77DFE0346002B12D0029B1846E5
:103F8000FFF7FEFD0190029B019A9A60019BDA6B9C
:103F9000029BDA60019B029ADA630198FEF720FD2A
:103FA00002E0029B00229A60039BDB6B002BD8D1BE
:103FB000039B1A6C039B9A60FEF7DAFD00BF05B005
:103FC0005DF804FB0000000000000000000000009D
:103FD00008B5FFF7FDFDFFF7BBFFFFF709FE00BFC8
:103FE00008BD00BF0000000000000000000000004D
:103FF00082B00190019B019A1A60019B019A5A605C
:1040000000BF02B0704700BF0000000000000000C9
:1040100082B00190019B1B68019A9A4214BF012350
:104020000023DBB2184602B0704700BF000000005A
:1040300084B00190019B1B680393039B1A68019B4A
:104040001A60019B1B68019A5A60039B184604B0D2
:10405000704700BF000000000000000000000000EA
:1040600082B030230193019B83F3118800BF00BF0E
:1040700000BF02B0704700BF000000000000000059
:1040800082B000230193019B83F3118800BF00BF1E
:1040900000BF02B0704700BF000000000000000039
:1040A00084B001900091019B0393039B1B680393D1
:1040B000039A019B9A4205D0039B9A68009B9B68D8
:1040C0009A42F2D2009B039A1A60039B5A68009BA3
:1040D0005A60009B5B68009A1A60039B009A5A60C2
:1040E00000BF04B0704700BF0000000000000000E7
:1040F000014BDB6818467047480A002000000000AA
:1041000008B5FFF7F5FF0346DB6B184608BD00BF97
:1041100000B583B00190019B1846FFF769FF00BF0F
:1041200003B05DF804FB00BF0000000000000000C9
:1041300000B583B00190FFF793FF019B1846FFF78E
:1041400067FF0346002B08D0019B1846FFF770FF5E
:10415000034600211846FEF7C3FCFFF791FF00BF9E
:1041600003B05DF804FB00BF000000000000000089
:1041700000B585B00190019B1846FFF749FF034643
:10418000002B0AD0019B1846FFF752FF0390039BB8
:1041900000229A620398FEF723FC00BF05B05DF889
:1041A00004FB00BF00000000000000000000000051
:1041B00000B583B00190FFF753FF019800F008F8B5
:1041C000FEF7D6FCFFF75CFF00BF03B05DF804FB11
:1041D00000B583B001900BE0019B1846FFF728FF64
:1041E00003461846FEF7FCFB03466FF001029A6295
:1041F000019B1846FFF70CFF0346002BECD100BFD4
:1042000000BF03B05DF804FB0000000000000000E8
:1042100000B585B00190FFF723FF019800F008F882
:104220000390FFF72DFF039B184605B05DF804FBD4
:1042300000B587B00190FFF75BFF0490FFF760FFC8
:1042400005900598FFF734FE049B019A9A62019B42
:10425000049A11461846FFF723FF0720FEF7D0FB0C
:10426000049B9B6A03930598FFF732FD039B184656
:1042700007B05DF804FB00BF000000000000000074
:1042800000B585B001900091FFF7EAFE0099019812
:1042900000F00EF80390FFF7F3FE039B184605B0FD
:1042A0005DF804FB000000000000000000000000BA
:1042B00000B587B001900091FFF71AFF0590FFF756
:1042C0001FFF04900498FFF7F3FD059B019A9A6283
:1042D000019B059A11461846FFF7E2FE0099072058
:1042E000FEF7C6FB0390039BB3F1FF3F02D0049897
:1042F000FFF7EEFC039B184607B05DF804FB00BF18
:1043000082B030230193019B83F3118800BF00BF6B
:1043100000BF02B0704700BF0000000000000000B6
:1043200082B000230193019B83F3118800BF00BF7B
:1043300000BF02B0704700BF000000000000000096
:10434000014BDB6818467047480A00200000000057
:1043500082B00190054BDB68996B044BDB68019AD6
:104360000A439A639B6B184602B07047480A0020C4
:1043700000B587B00390029101920093FFF7E0FF30
:104380000590039B1A68029B1A60039B029A1A60AD
:10439000029B059A5A60029B019A9A60029B002236
:1043A000DA60029B009A1A6100BF07B05DF804FB57
:1043B00000B585B00390029101920093FFF7A0FF32
:1043C000009B019A02990398FFF7D2FFFFF7A8FF1D
:1043D00000BF05B05DF804FB000000000000000015
:1043E00000B585B001900091019B0393FFF788FF12
:1043F0000CE0039B1B68009A9A4204D1009B1A6848
:10440000039B1A6007E0039B1B680393039B1B68D5
:10441000019A9A42EDD1FFF783FF00BF05B05DF826
:1044200004FB00BF000000000000000000000000CE
:1044300000B585B00190FFF783FF0390039B9B6B52
:10444000019A13400293039B9A6B019BDB431A4032
:10445000039B9A63029B184605B05DF804FB00BFFE
:1044600000B585B00190FFF74BFF0198FFF7E0FF23
:104470000390FFF755FF039B184605B05DF804FB5A
:1044800000B585B00190FFF73BFF0198FFF760FF93
:104490000390FFF745FF039B184605B05DF804FB4A
:1044A00000B583B001900091019B9A6B009B1A4369
:1044B000019B9A63019B93F824300A2B06D1019B40
:1044C0009A6B019B9B6A1340002B0DD1019B93F8C3
:1044D00024300B2B0ED1019B9A6B019B9B6A1A40D7
:1044E000019B9B6A9A4205D1019B00229A62019826
:1044F000FEF776FA00BF03B05DF804FB0000000091
:1045000000B583B001900091FFF7FAFE0099019881
:10451000FFF7C6FFFEF72CFBFFF702FF00BF03B05B
:104520005DF804FB00000000000000000000000037
:1045300000B585B001900091019B1B68039319E0C1
:10454000039BDA68009B1A43039BDA60009B002BF5
:1045500005D0039B1A69009B1340002B07D0039BD7
:104560005A68039B9B6819461046FFF799FF039B07
:104570001B680393039A019B9A42E1D100BF00BFDD
:1045800005B05DF804FB00BF000000000000000063
:1045900000B583B001900091FFF7B2FE0099019839
:1045A000FFF7C6FFFEF7E4FAFFF7BAFE00BF03B05D
:1045B0005DF804FB000000000000000000000000A7
:1045C00000B585B0019000910023039319E0039B8F
:1045D000009A22FA03F303F00103002B0ED0039B91
:1045E000012202FA03F3DB43009A13400093039B7A
:1045F0009B00019A13441B6803989847039B01335F
:104600000393009B002BE2D100BF00BF05B05DF813
:1046100004FB00BF000000000000000000000000DC
:1046200000B585B00190FFF78BFE0290FFF768FEA2
:10463000029B9B6B019A13400393039B002B0AD1AF
:10464000029B019A9A620A20FEF7DAF9029B9B6BA1
:10465000019A13400393039B5B42039A1340039315
:10466000029B9A6B039BDB431A40029B9A63FFF702
:1046700057FE039B184605B05DF804FB00000000E0
:1046800000B585B00190FFF75BFE0290FFF738FEA2
:10469000029B9B6B019A13400393039B002B0AD14F
:1046A000029B019A9A620A20FEF7AAF9029B9B6B71
:1046B000019A13400393029B9A6B039BDB431A40BE
:1046C000029B9A63FFF72CFE039B184605B05DF82A
:1046D00004FB00BF0000000000000000000000001C
:1046E00000B585B00190FFF72BFE0390FFF708FEA1
:1046F000039B9A6B019B1340019A9A4205D0039B3E
:10470000019A9A620B20FEF77BF9039B9A6B019B3F
:10471000DB431A40039B9A63FFF702FE019B184696
:1047200005B05DF804FB00BF0000000000000000C1
:1047300000B585B001900091FFF702FE0290FFF7EF
:10474000DFFD029B9B6B019A13400393039B002B9D
:1047500019D1009B002B03D1FFF7E2FD002321E0DC
:10476000029B019A9A6200990A20FEF781F903469A
:10477000002B03DAFFF7D4FD002313E0029B9B6BB1
:10478000019A13400393039B5B42039A13400393E4
:10479000029B9A6B039BDB431A40029B9A63FFF7D1
:1047A000BFFD039B184605B05DF804FB0000000048
:1047B00000B585B001900091FFF7C2FD0290FFF7B0
:1047C0009FFD029B9B6B019A13400393039B002B5D
:1047D00019D1009B002B03D1FFF7A2FD00231CE0A1
:1047E000029B019A9A6200990A20FEF741F903465A
:1047F000002B03DAFFF794FD00230EE0029B9B6B76
:10480000019A13400393029B9A6B039BDB431A406C
:10481000029B9A63FFF784FD039B184605B05DF881
:1048200004FB00BF000000000000000000000000CA
:1048300000B585B001900091FFF782FD0390FFF76E
:104840005FFD039B9A6B019B1340019A9A4214D01F
:10485000009B002B03D1FFF763FD002317E0039BB0
:10486000019A9A6200990B20FEF702F90346002B89
:1048700003DAFFF755FD002309E0039B9A6B019BC8
:10488000DB431A40039B9A63FFF74AFD019B1846DE
:1048900005B05DF804FB00BF000000000000000050
:1048A00082B001900091009B019A1A60019B5A68A6
:1048B000009B5A60009B5B68009A1A60019B009AFB
:1048C0005A6000BF02B07047000000000000000006
:1048D00084B00190019B1B680393039B1A68019BA2
:1048E0001A60019B1B68019A5A60039B184604B02A
:1048F000704700BF00000000000000000000000042
:1049000082B030230193019B83F3118800BF00BF65
:1049100000BF02B0704700BF0000000000000000B0
:1049200082B000230193019B83F3118800BF00BF75
:1049300000BF02B0704700BF000000000000000090
:10494000014BDB6818467047480A00200000000051
:1049500082B00190019B1A6B019B30339A4214BFC5
:1049600001230023DBB2184602B0704700000000AC
:1049700000B583B00190009100990198FEF7B0F85E
:1049800000BF03B05DF804FB000000000000000061
:1049900000B585B001900091FFF7D2FF0390FFF7BB
:1049A000AFFF039B009A9A62019B3033039A114632
:1049B0001846FFF775FF019B93F824300E2B02D1A8
:1049C0000198FEF70DF80C20FEF71AF8039B9B6A7E
:1049D0000093FFF7A5FF009B184605B05DF804FBA8
:1049E00000B583B0FFF7ACFF01900198FFF7B0FF6F
:1049F000034683F00103DBB2002B02D00E20FDF74B
:104A0000FFFF019B30331846FFF762FF0090009BC9
:104A10000D2283F82420009B184603B05DF804FBA8
:104A200000B583B001900091FFF76AFF00990198EB
:104A3000FFF79EFFFFF774FF00BF03B05DF804FBB4
:104A400082B030230193019B83F3118800BF00BF24
:104A500000BF02B0704700BF00000000000000006F
:104A600082B000230193019B83F3118800BF00BF34
:104A700000BF02B0704700BF00000000000000004F
:104A800000B58FB003900291019200930822029921
:104A9000039800F0FDFB0D900D9B002B01D100232E
:104AA00021E00D9A029B13440C93019B05930D9BEF
:104AB00006930C9B0793009B0893109B0993119BF3
:104AC0000A93FFF7BDFF05AB1846FEF719FB0B90E5
:104AD0000B9B012283F8252000210B98FEF700F89C
:104AE000FFF7BEFF0B9B18460FB05DF804FB00BF3D
:104AF00000B58FB00390029101920093039800F0EB
:104B00000FFE0D900D9B002B01D1002325E0039B90
:104B10005B680D9A13440C93029B05930D9B0693BF
:104B20000C9B0793019B0893009B0993109B0A938E
:104B3000FFF786FF05AB1846FEF7E2FA0B900B9BDA
:104B4000022283F825200B9B039A5A6400210B98BC
:104B5000FDF7C6FFFFF784FF0B9B18460FB05DF80B
:104B600004FB00BF00000000000000000000000087
:104B700082B00190019B019A1A60019B019A5A60D0
:104B800000BF02B0704700BF00000000000000003E
:104B900082B030230193019B83F3118800BF00BFD3
:104BA00000BF02B0704700BF00000000000000001E
:104BB00082B000230193019B83F3118800BF00BFE3
:104BC00000BF02B0704700BF0000000000000000FE
:104BD00000B583B00190019B1846FFF7C9FF00BFE5
:104BE00003B05DF804FB00BF0000000000000000FF
:104BF00082B00190019B5A68019B1B68D31A9B10DD
:104C0000184602B0704700BF00000000000000001E
:104C100082B00190019B1B69184602B0704700BF2B
:104C200010B582B001900198FFF7E2FF04460198A9
:104C3000FFF7EEFF0346E31A184602B010BD00BFAF
:104C400000B585B0039002910192039B029A1A600D
:104C5000039B029ADA60039B029A9A60019B9B0075
:104C6000029A1A44039B5A60039B00221A61039B19
:104C700000221A75039B18331846FFF7A9FF039B00
:104C800020331846FFF7A4FF00BF05B05DF804FB12
:104C900000B583B00190FFF77BFF019800F008F8A2
:104CA000FDF766FFFFF784FF00BF03B05DF804FB6C
:104CB00000B583B00190019B1A68019B9A60019B2B
:104CC0001A68019BDA60019B00221A61019B012294
:104CD0001A75019B18336FF001011846FEF788FC26
:104CE000019B20336FF001011846FEF781FC00BFE5
:104CF00003B05DF804FB00BF0000000000000000EE
:104D000000B587B0039002910192FFF741FF019A2D
:104D10000299039800F00CF80590FFF749FF059BF6
:104D2000184607B05DF804FB00000000000000001A
:104D300000B587B0039002910192039B1B7D002B6D
:104D400002D06FF0010330E00398FFF769FF0346DC
:104D5000002B1FD0039B9B68191D039A9160029A38
:104D60001A60039B9A68039B5B689A4203D3039B78
:104D70001A68039B9A60039B1B695A1C039B1A6168
:104D8000039B203300211846FEF71AFCFDF7F0FEC6
:104D900000230AE0039B183301991846FEF7F0FB45
:104DA0000590059B002BC8D0059B184607B05DF801
:104DB00004FB00BF00000000000000000000000035
:104DC00000B583B001900091019B1B7D002B02D0A8
:104DD0006FF0010325E00198FFF722FF0346002B47
:104DE0001DD0019B9B68191D019A9160009A1A6061
:104DF000019B9A68019B5B689A4203D3019B1A68E6
:104E0000019B9A60019B1B695A1C019B1A61019BC3
:104E1000203300211846FEF7D3FB002301E04FF0BA
:104E2000FF33184603B05DF804FB00BF000000002C
:104E300000B587B0039002910192FFF7A9FE019A95
:104E40000299039800F00CF80590FFF7B1FE059B5E
:104E5000184607B05DF804FB0000000000000000E9
:104E600000B587B0039002910192039B1B7D002B3C
:104E700002D06FF0010333E00398FFF7D1FE034641
:104E8000002B22D0039BDB681A1F039BDA60039B75
:104E9000DA68039B1B689A4204D2039B5B681A1F63
:104EA000039BDA60039BDB68029A1A60039B1B6911
:104EB0005A1C039B1A61039B203300211846FEF7FE
:104EC0007FFBFDF755FE00230AE0039B1833019991
:104ED0001846FEF755FB0590059B002BC5D0059B9A
:104EE000184607B05DF804FB000000000000000059
:104EF00000B583B001900091019B1B7D002B02D077
:104F00006FF0010328E00198FFF78AFE0346002BAB
:104F100020D0019BDB681A1F019BDA60019BDA68D5
:104F2000019B1B689A4204D2019B5B681A1F019B7C
:104F3000DA60019BDB68009A1A60019B1B695A1CAE
:104F4000019B1A61019B203300211846FEF738FBB4
:104F5000002301E04FF0FF33184603B05DF804FB77
:104F600000B587B0039002910192FFF711FE019AFC
:104F70000299039800F00CF80590FFF719FE059BC5
:104F8000184607B05DF804FB0000000000000000B8
:104F900000B587B0039002910192039B1B7D002B0B
:104FA00002D06FF0010331E00398FFF731FE0346B2
:104FB000002B20D0039BDB68191D039AD1601A686F
:104FC000029B1A60039BDA68039B5B689A4203D3D7
:104FD000039B1A68039BDA60039B1B695A1E039BA1
:104FE0001A61039B183300211846FEF7E9FAFDF712
:104FF000BFFD00230AE0039B203301991846FEF70A
:10500000BFFA0590059B002BC7D0059B184607B03B
:105010005DF804FB0000000000000000000000003C
:1050200000B583B001900091019B1B7D002B02D045
:105030006FF0010326E00198FFF7EAFD0346002B1D
:105040001ED0019BDB68191D019AD1601A68009B74
:105050001A60019BDA68019B5B689A4203D3019B4B
:105060001A68019BDA60019B1B695A1E019B1A6139
:10507000019B183300211846FEF7A2FA002301E035
:105080004FF0FF33184603B05DF804FB000000004A
:1050900082B030230193019B83F3118800BF00BFCE
:1050A00000BF02B0704700BF000000000000000019
:1050B00082B000230193019B83F3118800BF00BFDE
:1050C00000BF02B0704700BF0000000000000000F9
:1050D000034B044A1A60024B034A5A6000BF7047F0
:1050E000000C0020209101200000022000000000A0
:1050F00086B0039002910192114B1A68019B1344F0
:105100001A46029B13445A1E029B5B4213400593AE
:10511000059A039B13440493094B5B68049A9A42D3
:1051200004D8074B1B68049A9A4201D2002303E07B
:10513000034A049B1360059B184606B0704700BFE6
:10514000000C002000000000000000000000000033
:1051500086B0039002910192104B5A68039B5B4208
:1051600013441A46029B5B4213400593019B5B422A
:10517000059A13440493094B1B68049A9A4204D37A
:10518000064B5B68049A9A4201D9002303E0034A64
:10519000049B5360059B184606B07047000C002026
:1051A00000B587B0039002910192FFF771FF019A59
:1051B00002990398FFF79CFF0590FFF779FF059B85
:1051C000184607B05DF804FB000000000000000076
:1051D00000B587B0039002910192FFF759FF019A41
:1051E00002990398FFF7B4FF0590FFF761FF059B55
:1051F000184607B05DF804FB000000000000000046
:1052000008B5074B074A1A60054B00225A60044B49
:1052100000229A600448FEF73BFD00BF08BD00BFB6
:10522000080C0020D1510008140C002000000000E0
:1052300000B587B0039002910192029B073323F0DF
:1052400007030593059A029BD31A1A46019B9B1AE2
:105250000193039B00221A60039B059A5A60039BEB
:1052600000229A60059B00221A60019B083BDA0825
:10527000059B5A60039B0C331846FEF709FD00BFDF
:1052800007B05DF804FB00BF000000000000000054
:1052900000B58DB0039002910192039B002B01D1C8
:1052A000624B0393019B072B01D808230193029BB8
:1052B0000733DB080993039B0C331846FEF7F8FC11
:1052C000039B04330B9387E00B9B1B680A930A9A9A
:1052D000019B1344DA1D019B5B421340083B08937A
:1052E0000A9B5B680133DB000A9A1344089A9A42CE
:1052F00070D20A9B5B680133DB000A9A1A44089B50
:105300000833D31ADB101A46099B934262D8089AD5
:105310000A9B9A422CD90A9B5B680133DB000A9AEC
:105320001A44089B0833D31ADB1006930A9B0833F0
:10533000089AD31ADB101A460A9B5A60069A099BF0
:105340009A4212D9099B0133DB00089A1344059352
:10535000069A099BD31A5A1E059B5A600A9B1A6823
:10536000059B1A600A9B059A1A60089B0A9323E022
:105370000A9B5B68099A9A4204D10A9B1A680B9BA4
:105380001A6019E0099B0133DB000A9A1344079362
:105390000A9B1A68079B1A600A9B5B680133DB0053
:1053A0000A9A1A44079B0833D31ADB101A46079B44
:1053B0005A600B9B079A1A600A9B029A5A600A9BD2
:1053C000039A1A60039B0C331846FEF721FD0A9BD3
:1053D000083326E00A9B0B930B9B1B68002B7FF482
:1053E00073AF039B0C331846FEF712FD039B1B683B
:1053F000002B15D0039B1B68099AD0000822019945
:1054000098470890089B002B0AD0089B083B0A93FA
:105410000A9B039A1A600A9B029A5A60089B00E052
:10542000002318460DB05DF804FB00BF080C0020F7
:1054300000B587B00190019B083B0493049B1B6857
:105440000393039B04330593049B5B680733DA08DB
:10545000049B5A60039B0C331846FEF729FC039B00
:105460000433059A9A4203D0049A059B9A423DD987
:10547000059B1B68002B04D0059B1B68049A9A426D
:1054800034D2059B1A68049B1A60059B049A1A6023
:10549000049B5B680133DB00049A1A44049B1B687D
:1054A0009A420DD1049B5A68049B1B685B681344A5
:1054B0005A1C049B5A60049B1B681A68049B1A6060
:1054C000059B5B680133DB00059A1344049A9A42FA
:1054D00010D1059B5A68049B5B6813445A1C059BBA
:1054E0005A60049B1A68059B1A6003E0059B1B68C1
:1054F0000593B4E700BF039B0C331846FEF788FC06
:1055000000BF07B05DF804FB0000000000000000D1
:1055100000B58BB0039002910192039B002B01D147
:10552000204B0393039B0C331846FEF7C1FB00236B
:1055300007930023069300230893039B04330993E6
:1055400013E0099B1B685B680593089B0133089374
:10555000079A059B13440793059A069B9A4201D923
:10556000059B0693099B1B680993099B1B68002BED
:10557000E7D1029B002B03D0079BDA00029B1A6045
:10558000019B002B03D0069BDA00019B1A60039B52
:105590000C331846FEF73CFC089B18460BB05DF830
:1055A00004FB00BF080C0020000000000000000009
:1055B00082B030230193019B83F3118800BF00BFA9
:1055C00000BF02B0704700BF0000000000000000F4
:1055D00082B000230193019B83F3118800BF00BFB9
:1055E00000BF02B0704700BF0000000000000000D4
:1055F00000B583B0019000910099019800F0B0F8D7
:1056000000BF03B05DF804FB0000000000000000D4
:1056100000B583B001900091019B0C3300991846AE
:1056200000F08EF8019B1846FEF7FAF900BF03B0B0
:105630005DF804FB00000000000000000000000016
:1056400000B583B0019000910099019800F008F92D
:1056500000BF03B05DF804FB000000000000000084
:1056600084B00390029101920093039B00221A6080
:10567000039B029A5A60039B019A9A60039B009ACB
:10568000DA6000BF04B070470000000000000000B6
:1056900000B585B00390029101920BE00299039846
:1056A000FFF7A6FF039B5B68029A13440293019BDA
:1056B000013B0193019B002BF0D100BF00BF05B05F
:1056C0005DF804FB00000000000000000000000086
:1056D00000B585B00190019B1B680393039B002BD1
:1056E00005D0019B1B681A68019B1A600CE0019BA6
:1056F000DB68002B08D0019BDB68019A5068019A97
:105700009268114698470390039B184605B05DF8D0
:1057100004FB00BF000000000000000000000000CB
:1057200000B585B00190FFF743FF0198FFF7D0FF68
:105730000390FFF74DFF039B184605B05DF804FB8F
:1057400084B001900091009B0393019B1A68039B16
:105750001A60019B039A1A6000BF04B0704700BF33
:1057600000B583B001900091FFF722FF00990198E6
:10577000FFF7E6FFFFF72CFF00BF03B05DF804FB67
:1057800000B585B0039002910192039B03F10C00D8
:105790000023019A0299FFF763FF039B002118463B
:1057A000FEF74EF800BF05B05DF804FB00000000F6
:1057B00000B585B00390029101920BE00299039825
:1057C000FFF73EFF039B1B69029A13440293019B60
:1057D000013B0193019B002BF0D100BF00BF05B03E
:1057E0005DF804FB00000000000000000000000065
:1057F00000B585B001900091019B00991846FEF715
:10580000B7F80390039B002B01D0002305E0019B18
:105810000C331846FFF75CFF0346184605B05DF8E9
:1058200004FB00BF000000000000000000000000BA
:1058300000B585B001900091FFF7BAFE009901987C
:10584000FFF7D6FF0390FFF7C3FE039B184605B092
:105850005DF804FB000000000000000000000000F4
:1058600000B583B001900091FFF7A2FE0099019866
:10587000FFF7CEFEFDF77CF9FFF7AAFE00BF03B0ED
:105880005DF804FB000000000000000000000000C4
:1058900082B030230193019B83F3118800BF00BFC6
:1058A00000BF02B0704700BF000000000000000011
:1058B00082B000230193019B83F3118800BF00BFD6
:1058C00000BF02B0704700BF0000000000000000F1
:1058D00082B00190019B5A68019B1B68D31A18463D
:1058E00002B070470000000000000000000000004F
:1058F00082B00190019B1B69184602B0704700BF3F
:1059000010B582B001900198FFF7E2FF04460198BC
:10591000FFF7EEFF0346E31A184602B010BD00BFC2
:1059200000B587B0039002910192039B2033184683
:10593000FEF7BEF90398FFF7E3FF0246019B93428F
:1059400003D90398FFF7DCFF0190039B1A69019BC1
:105950001A44039B1A61039B5A68039B9B68D31AE2
:105960000593019A059B9A420DD2039B9B68019A6D
:105970000299184616F058FE039B9A68019B1A4438
:10598000039B9A602BE0019A059B9A421CD9039BCA
:105990009B68059A0299184616F046FE029A059BE6
:1059A00013440293019A059BD31A0493039B1B682B
:1059B000049A0299184616F037FE039B1A68049B56
:1059C0001A44039B9A600AE0039B9B68019A029920
:1059D000184616F029FE039B1A68039B9A60039BE6
:1059E00020331846FEF714FA019B184607B05DF8FD
:1059F00004FB00BF000000000000000000000000E9
:105A000000B587B0039002910192039B20331846A2
:105A1000FEF74EF90398FFF76BFF0246019B934296
:105A200003D90398FFF764FF0190039B1A69019B58
:105A3000D21A039B1A61039B5A68039BDB68D31A33
:105A40000593019A059B9A420DD2039BDB68019A4C
:105A50001946029816F0E8FD039BDA68019B1A4488
:105A6000039BDA602BE0019A059B9A421CD9039BA9
:105A7000DB68059A1946029816F0D6FD029A059B36
:105A800013440293019A059BD31A0493039B1B684A
:105A9000049A1946029816F0C7FD039B1A68049BE6
:105AA0001A44039BDA600AE0039BDB68019A1946FB
:105AB000029816F0B9FD039B1A68039BDA60039BFA
:105AC00020331846FEF7A4F9019B184607B05DF88D
:105AD00004FB00BF00000000000000000000000008
