:020000040800F2
:1000000000040020B9020008BB020008BB0200087F
:10001000BB020008BB020008BB020008BB020008CC
:10002000BB020008BB020008BB020008F167000821
:10003000BB020008BB020008BB020008BB020008AC
:10004000BB020008BB020008BB020008BB0200089C
:10005000BB020008BB020008BB020008BB0200088C
:10006000BB020008BB020008BB020008BB0200087C
:10007000BB020008BB020008BB020008BB0200086C
:10008000BB020008BB020008BB020008BB0200085C
:10009000BB020008BB020008BB020008BB0200084C
:1000A000BB020008BB020008BB020008BB0200083C
:1000B00051190008BB020008BB020008BB0200087F
:1000C000BB020008BB020008BB020008BB0200081C
:1000D000BB02000891180008F1180008BB020008D4
:1000E000BB020008BB020008BB020008BB020008FC
:1000F000BB020008BB020008BB020008BB020008EC
:10010000BB020008BB020008BB020008BB020008DB
:10011000BB020008BB020008BB020008BB020008CB
:10012000BB020008BB020008BB020008BB020008BB
:10013000BB020008BB020008BB020008BB020008AB
:10014000BB020008BB020008BB020008BB0200089B
:10015000BB020008BB020008BB020008BB0200088B
:10016000BB020008BB020008BB020008BB0200087B
:10017000BB020008BB020008BB020008BB0200086B
:10018000BB020008BB020008BB020008BB0200085B
:10019000BB020008BB020008BB020008BB0200084B
:1001A000BB020008BB020008BB020008BB0200083B
:1001B000BB020008BB020008BB020008BB0200082B
:1001C000BB020008BB020008BB020008BB0200081B
:1001D000BB020008BB020008BB020008BB0200080B
:1001E00072B6264880F30888254880F30988254898
:1001F00025490860022080F31488BFF36F8F01F057
:10020000F7FA01F095FC4FF0553020491B4A914216
:100210003CBF41F8040BFAE71D49194A91423CBF23
:1002200041F8040BFAE71B491B4A1C4B9A423EBF9C
:1002300051F8040B42F8040BF8E700201849194A5A
:1002400091423CBF41F8040BFAE701F0E9FA01F0F2
:10025000D7FA154C154DAC4203DA54F8041B884705
:10026000F9E70FF075F8124C124DAC4203DA54F86E
:10027000041B8847F9E701F0CBBA00000004002016
:10028000000800200000000808ED00E00000002049
:1002900000040020B885010800080020380900206B
:1002A0003809002044BC0120E0010008E0010008FA
:1002B000E0010008E001000892E700F000F8FEE726
:1002C0002DE9F04FC1F80CD0C3689D46BDE8F08F12
:1002D000002383F311882846A047002003F0E0FDA7
:1002E000FEE701F035FE00DFFEE700000000000041
:1002F00001F0FF01102A2BDB10F0070F08D010F8D7
:10030000013B013A8B422DD010F0070F42B3F6D1DA
:10031000F0B441EA012141EA014122F007047FF0F3
:1003200000070023F0E80256083C85EA010586EA4A
:10033000010685FA47F5A3FA87F586FA47F6A5FA86
:1003400087F68EB9EED1F0BC01F0FF0102F0070292
:1003500032B110F8013B013A83EA010313B1F8D13D
:100360000020704701387047002D06BF354603381E
:10037000073815F0010F07D1013015F4807F02BF57
:10038000013015F4C03F0130F0BC0138704700BFA8
:1003900010F8012B11F8013B012A28BF9A42F7D02F
:1003A000D01A7047000000000000000000000000AC
:1003B000012914BF6FF013000020704700000000F7
:1003C000024AD36843F0C003D36070470010014075
:1003D000024AD36843F0C003D36070470044004032
:1003E000FEE700BF00000000000000000000000069
:1003F00010B4302383F311880B4B5C684942201AF8
:1004000008401968821A8A4207D3944205D35A6079
:10041000002383F3118810BC70470020002383F36E
:10042000118810BC704700BF600B00200000000066
:1004300003681A1D02601B68184700BF0000000017
:10044000016803460A46081D10B4186052F8084BAC
:1004500048681A60234610BC184700BF000000001F
:10046000026830B40346111D506819601468916821
:1004700002F10C051D60234630BC18470000000047
:10048000036830B402461C1DD3E9010114601C68E6
:1004900003F110051560DA68234630BC184700BF29
:1004A000036830B484461C1DD3E90101DA68CCF836
:1004B00000401C6803F11405CCF800501B69A446E9
:1004C00030BC604700000000000000000000000099
:1004D000064B5A684942101A08401968884203D3EB
:1004E000824201D35860704700207047600B0020A3
:1004F000044B10B50446586A0368E1B2DB689847BC
:10050000204610BD740B0020000000000000000019
:1005100070B40D4D05F11006EC68334605E013F894
:1005200001CB10F8012B944506D19C42F7D80078F6
:1005300010B9EE6070BC704740F20113AB80A96047
:10054000012070BC704700BF740B00200000000049
:1005500010B4424C01232360302383F311884049B7
:100560000A688A4263D0002312688A4203F10103B9
:10057000FAD14A688A4246D052688A4203F1FF3370
:10058000FAD1002B3FD1002383F31188022222608D
:10059000302282F3118833480A6982424DD01268B2
:1005A000824203F10103FAD14A69824235D052688E
:1005B000824203F1FF33FAD17BBB002383F311881E
:1005C00003222260302282F3118827488A6A8242FD
:1005D00040D01268824203F10103FAD1CA6A824212
:1005E0002FD05268824203F1FF33FAD14BBB002374
:1005F00083F3118804222260302282F3118883F36E
:10060000118810BC7047002383F31188174BA36037
:1006100040F20112A28010BC7047002383F31188BE
:10062000134BA36040F20112A28010BC70474A68CD
:100630008A4218BF00239FD1A5E74A698242B6D1FA
:10064000BBE7002383F311880A4BA36040F2011239
:10065000A280E0E7CA6A8242C3D1C8E7740B0020D7
:10066000900A0020A00A0020B80A002038070108DC
:100670005007010874070108000000000000000096
:10068000074B01221A60302383F3118862B672B6D9
:1006900083F3118862B6002383F3118862B6704732
:1006A000740B0020000000000000000000000000AB
:1006B000044B01214FF080421960516A536A9942FC
:1006C000FCD07047740B0020000000000000000008
:1006D000014B03221A607047740B002000000000D9
:1006E000054BDA6803F120018A4203D20178501CDD
:1006F000D8601170704700BF740B0020000000002C
:10070000014B00221A607047F8160020000000001C
:10071000024B0122C3E900339A607047BC0D0020F0
:10072000024B0022C3E900339A607047BC0D0020E1
:10073000024B0022C3E900339A607047BC0D0020D1
:10074000024B0022C3E900339A607047BC0D0020C1
:10075000024B0022C3E900339A607047BC0D0020B1
:10076000024B0022C3E900339A6070472C08002036
:10077000024B0022C3E900339A6070472C08002026
:10078000044A054B0021C2E90022C3E9003391600D
:10079000996070472C0800203C08002000000000F1
:1007A000044B054A0021C2E90022C3E900339960E5
:1007B000704700BF2C080020000800200000000047
:1007C000044B054A0021C2E90022C3E900339960C5
:1007D000704700BF2C080020000800200000000027
:1007E000064A074B07490020C1E90011C2E900226F
:1007F000C3E9003390609860704700BF2C08002068
:100800003C0800200008002000000000000000005C
:10081000054BDA6803F120018A4203D2501C4121C2
:10082000D8601170704700BF740B002000000000FA
:10083000054BDA6803F120018A4203D2501C4221A1
:10084000D8601170704700BF740B002000000000DA
:10085000054BDA6803F120018A4203D2501C432180
:10086000D8601170704700BF740B002000000000BA
:10087000F0B4394A394C126002278AB02760302020
:1008800080F31188364D13680593EB6806930126B3
:100890000023CDE9076305A94FF0FF3611600996E3
:1008A00083F3118880F31188ED6801951568009530
:1008B0006D46029704960393156083F3118880F3C5
:1008C00011881668964237D083F31188032323607A
:1008D00080F31188134601E08B4237D018461B681D
:1008E0009342F9D1002383F31188302181F31188D9
:1008F0001068904220D083F311880423236081F391
:100900001188154B01E0AB4223D019461B68934276
:10091000F9D1002383F31188302181F31188116804
:1009200091421FBF0F4AA26040F20111A18083F3E0
:1009300011880AB0F0BC70470B4AA26040F2011166
:10094000A18083F311880AB0F0BC7047059B036057
:10095000C8E7009B0B60DCE708080020740B002050
:10096000900A00209C070108900701080000000081
:10097000302383F31188034AD2680023936383F3FF
:1009800011887047900A002000000000000000005D
:10099000F8B50F4B0F4E01271F600725002425FADD
:1009A00004F313F0010F07FA04F220460DD056F8B5
:1009B000243025EA020501349847002DEFD1BDE827
:1009C000F84005490548FFF7A3BD0134E7E700BF3C
:1009D000740B002084190108AC070108C007010846
:1009E000302383F31188034AD2680023936383F38F
:1009F00011887047900A00200000000000000000ED
:100A0000302383F31188034AD2680023936383F36E
:100A100011887047900A00200000000000000000CC
:100A2000302383F31188034AD2680023936383F34E
:100A300011887047900A00200000000000000000AC
:100A4000302383F31188034AD2680023936383F32E
:100A500011887047900A002000000000000000008C
:100A6000302383F31188054AD2680023936383F30C
:100A70001188034A034B12601B607047900A0020E4
:100A8000080800200C080020000000000000000002
:100A9000054BDA6803F120018A4203D20178501C29
:100AA000D8601170704700BF740B00200000000078
:100AB0000A4B0B4AD91D21F00701CB1AC3F5066377
:100AC00008330020DB08C2E900019060C1E900039F
:100AD00002F10C03C2E9033350617047D80D0020C6
:100AE000FC0B0020000000000000000000000000DF
:100AF000044B00224FF4D8700421C3E90020C3E95D
:100B0000021270478C0C0020000000000000000062
:100B1000704700BF0000000000000000000000005F
:100B2000024B0022C3E900339A607047C80D0020D1
:100B3000024B0122C3E900339A607047C80D0020C0
:100B4000024B0022C3E900339A607047AC0C0020CE
:100B500030B40A4B0A4A002402F1100503F11800D0
:100B600003F12001C3E900251C611C75C3E90222C1
:100B700030BCC3E90600C3E9081170474C080020E7
:100B80007C0C0020000000000000000000000000BD
:100B900030B40A4B0A4A002402F1100503F1180090
:100BA00003F12001C3E900251C611C75C3E9022281
:100BB00030BCC3E90600C3E9081170474C080020A7
:100BC0007C0C00200000000000000000000000007D
:100BD00030B40A4B0A4A002402F1100503F1180050
:100BE00003F12001C3E900251C611C75C3E9022241
:100BF00030BCC3E90600C3E9081170474C08002067
:100C00007C0C00200000000000000000000000003C
:100C100030B40F490F4B01F110050022C3E9001554
:100C200003F12004C3E9021103F1300003F1400194
:100C3000C3E90844C3E9062230BCC3E90C00C3E998
:100C400010111A611A759A629A639A64704700BF0C
:100C5000380A002084080020000000000000000086
:100C600030B40F490F4B01F108050022C3E900150C
:100C700003F12004C3E9021103F1300003F1400144
:100C8000C3E90844C3E9062230BCC3E90C00C3E948
:100C900010111A611A759A629A639A64704700BFBC
:100CA000380A002084080020000000000000000036
:100CB000064BDA6803F120018A4203D2501C30212E
:100CC000D860117045F2AA50704700BF740B002025
:100CD000044BDA6803F120018A4202D2511CD96028
:100CE00010707047740B002000000000000000002E
:100CF000094BDA6803F1200C62450CD210B4541C85
:100D0000DC601070DA686245C9B202D2541CDC6043
:100D1000117010BC70477047740B00200000000079
:100D20000C4B30B4DC6803F1200C644510D2651C18
:100D3000DD602070DC686445C9B209D2651CDD60E5
:100D40002170D9686145D2B202D24C1CDC600A70B5
:100D500030BC7047740B0020000000000000000051
:100D600070B4104CE56804F1200C654517D26E1C78
:100D7000E6602870E5686545C9B210D26E1CE66071
:100D80002970E1686145D2B209D24D1CE5600A7054
:100D9000E2686245DBB202D2511CE160137070BCA4
:100DA000704700BF740B002000000000000000002E
:100DB000074BDA6803F120018A4203D2501C5A2102
:100DC000D8601170034B01221A704AF65520704703
:100DD000740B0020B80B0020000000000000000091
:100DE000064BDA6803F12000824204D24969501CA4
:100DF0004131D86011700020704700BF740B002093
:100E0000002070470000000000000000000000000B
:100E1000034B00220421C3E90021C3E902127047F9
:100E20007408002000000000000000000000000026
:100E30002DE9F0415D4F5E4B5E4C01223A6030255A
:100E40000422002085F3118821681960236080F353
:100E500011886168013A0B44F4D102233B600426F7
:100E60004FF03008154688F311882068002870D0AC
:100E70000368236085F31188002863D0013EF2D116
:100E800003233B60302383F311882068002872D04D
:100E900003682360002383F31188002864D1444B46
:100EA00004223A6003F11006302500201A4685F32B
:100EB0001188216843F8041B226080F311889E4248
:100EC000F4D105233B60042530264FF0000886F35B
:100ED00011882068002831D00368236088F31188C6
:100EE00000282FD0013DF2D106233B60302383F34D
:100EF00011882068002844D003682360002383F30E
:100F00001188002830D12C4A0721042339600021A0
:100F1000C4E90013C4E90232302383F31188206846
:100F2000002834D003682360002383F3118870B154
:100F3000224BBB6040F20112BA8008E0E3687BB943
:100F400083F311881E4BBB6040F20112BA80BDE8EA
:100F5000F081E368002BF3D0D4E90101984789E7D9
:100F6000D4E901019847B9E7164BBB6040F2011282
:100F7000BA80BDE8F081E3687BB1D4E9010198470C
:100F800088E7E36863B1D4E901019847B6E7E3680D
:100F90004BB1D4E901019847C6E786F311887EE793
:100FA00085F31188AFE783F31188D0E7740B002035
:100FB000AC0D002074080020010E0008E0070108B5
:100FC000C4070108D007010800000000000000006D
:100FD000054B00220421C3E90321C3E90512C3E93B
:100FE00000339A60704700BF100800200000000026
:100FF000054B00220421C3E90321C3E90512C3E91B
:1010000000339A60704700BF100800200000000005
:101010000A4B0B4AD91D21F00701CB1AC3F1780303
:101020000020DB08C2E900019060C1E9000302F181
:101030000C03C2E903335061704700BF64160020FF
:101040004816002000000000000000000000000022
:10105000302383F3118891F824300C2B10D8DFE86B
:1010600003F02A0F0F260B070F0B0F0F0F0F0B00AC
:101070008A6A936801339360D1E9003213605A6041
:1010800010B400224FF0FF348B6988688C6281F8BD
:1010900024201B689A688242FBD25A680020C1E96A
:1010A00000321160596080F3118810BC70478B6A60
:1010B00000221A60E4E7002383F31188704700BF21
:1010C00083680133002B836000DD7047036810B430
:1010D0001C689A690460002160609868996283F8CE
:1010E0002410126891688142FBD2516810BCC3E998
:1010F00000210B60536070470000000000000000FA
:10110000184B026810B4DC68C368E363824224D0E1
:10111000216C4BB11A68934203D09268914238BF58
:101120001146DB68002BF5D1A1600368DC6B1A68FF
:10113000026000215060C0E902349A699C68D8635B
:1011400083F8241012689168A142FBD2516810BC48
:10115000C3E900210B6053607047002310BC93600B
:10116000704700BF900A002000000000000000004F
:101170000368984234D0F0B4002505E0BCF10B0FB1
:1011800029D01B68984224D0DA680A43DA6011B18A
:101190001A691142F5D0D3E90124966B92F824C064
:1011A0003443BCF10A0F9463E8D1966A3442E8D024
:1011B00094699768956282F824502468A668BE42B4
:1011C000FBD21B6866689842C2E9004632606260E2
:1011D000DAD1F0BC7047966A36EA0404D1D1E7E769
:1011E000704700BF00000000000000000000000089
:1011F0002DE9F84F466FD6F80C903368D9050446B0
:101200009DB200F18880302383F3118815F02F0FF1
:1012100059D0201D04F10C074FF000080AE0A90680
:10122000D6F804B094F87CA01DD4336813F02F0FC7
:101230009DB248D02A07F2D0C5F3C0010902EB07DE
:1012400048BF41F02001AA0748BF41F040016B07A9
:1012500048BF41F08001FFF78BFFA906D6F804B024
:1012600094F87CA0E1D56369002B45D0D4E908232C
:101270009A4248D06369013363610AEA0B0A531C3E
:10128000236282F800A0D4E907329A4201D3A3690D
:101290002362E3689F42C8D01A6899699D68E2603A
:1012A0005760C3F8288083F8248009688A68AA42B6
:1012B000FBD24A6819605A6013604B60336813F0C0
:1012C0002F0F9DB2B6D1002383F3118819F0800F40
:1012D00001D02A062ED419F0400F0BD06B0609D589
:1012E000302383F31188D4E911239A424FD000238D
:1012F00083F31188BDE8F88F0421FFF739FFD4E9A3
:1013000008239A42B6D16369002BB3D04FF4006131
:10131000FFF72EFF89E7302383F311884FF48061B4
:101320000430FFF725FF6FF480733360002383F3ED
:10133000118868E7302383F31188E118D4E9112379
:101340009A4231D0A26B0132A2635A1CA26418786F
:10135000236C9A4201D3E36BA364236B994211D0AF
:101360001A682263516000229A6283F824209F68E1
:101370009A6912689168B942FBD251681A60596043
:101380000B6053607060002383F31188A3E7A36BA5
:10139000002BACD01021201DFFF7EAFE4FF6BF73E3
:1013A00009EA0303F360A2E7A26B002ACAD008216E
:1013B000201DFFF7DDFE4FF67F7309EA0303F3609C
:1013C000E1E700BF00000000000000000000000096
:1013D00010B5302383F31188104BD96818688A68D8
:1013E0008468944215D304681C606360012480F80B
:1013F0002440D86000248B6981F824401B689C68D5
:10140000A242FBD95A68C1E9003211605960FEF767
:1014100057FF002383F3118810BD00BF900A0020FE
:1014200038B5194B3022DC6882F31188426B626058
:1014300000F130052560A162146090F82420446317
:101440000E2A12D0D96818680C2281F8242002686C
:101450001A605360012280F82420D860FEF730FF24
:10146000A06A002383F3118838BD00218269856852
:1014700080F8241012689168A942FBD25168C0E933
:10148000002108605060DDE7900A002000000000A5
:1014900010B541210446FFF7C3FF42212046FFF764
:1014A000BFFF43212046FFF7BBFF20464421BDE894
:1014B0001040FFF7B5BF00BF0000000000000000B3
:1014C00010B53023044683F31188154A9368013B15
:1014D000002B93600DDB002383F31188114BDA6836
:1014E00003F120018A4203D22178501CD860117088
:1014F00010BD0D4B5068D9684FF0050CC1E90020B4
:101500008A620160186881F824C0516002681A601C
:101510005360012280F82420D860FEF7D1FEDAE77C
:10152000BC0D0020740B0020900A00200000000079
:1015300070B5302383F311881E4BD968CA6A88625C
:1015400001F12C0C944518BF4FF0000E13D191F807
:1015500026202AB318680F2281F8242002681A6016
:101560004FF0010C536080F824C0BDE87040D86093
:10157000FEF7A6BE2246146890699668CC6282F88F
:1015800024E000688568B542FBD245681060644578
:1015900055602A604260EDD191F82620002AD9D109
:1015A00091F825209207D5D1D1E90420026050603E
:1015B000D0E700BF900A00200000000000000000FB
:1015C000F8B50D4C3023E76883F311880326012515
:1015D000E168206881F82460036823605C6080F81B
:1015E0002450E060FEF76CFEBB6A002BF0D00023B5
:1015F00083F31188F8BD00BF900A002000000000AE
:101600002DE9F041174FFB6893F825305A0727D48E
:10161000154C4FF030080526012507E0002383F321
:101620001188FB6893F825305B0719D488F311887B
:10163000A368013B002BA360F0DAF968636838689F
:101640008C62C1E90043196081F82460036861601D
:101650005F6080F824503B60F860FEF731FEDDE704
:10166000BDE8F081900A0020C80D002000000000B5
:101670002DE9F0411A4C054630274FF001080026AD
:1016800087F31188E16820688A688368934214D3DD
:10169000036823605C6080F824808B69E06081F8D7
:1016A00024601B68D3F808C06245FAD95A68C1E9BA
:1016B000003211605960FEF703FE86F31188FFF7D0
:1016C00087FEFFF785FEFFF783FE2B68E268043391
:1016D0002B6092F825305B07D2D5BDE8F08100BFC2
:1016E000900A002000000000000000000000000040
:1016F0000EB410B585B007AB01AA53F8044B0392A2
:1017000002A9CDE90134FFF78BFE05B0BDE810401A
:1017100003B070470000000000000000000000005F
:10172000014800210CF014BBBC0D0020000000009B
:101730000CF016BA000000000000000000000000DD
:101740000CF00EBA000000000000000000000000D5
:101750000CF006BA000000000000000000000000CD
:1017600030B51D4C1D4D237D012285B02A6053B13B
:101770002268E36893420ED0194BAB6040F201122D
:10178000AA8005B030BD102168460DF081FB00280D
:10179000EED0144BF1E7A2689342EDD12369002B00
:1017A000EAD1237D02222A607BB910200DF0E0FBF4
:1017B00008280AD1D4E902239342DDD1226893425A
:1017C000DAD12369082BD7D1DBE7064BAB6040F2B7
:1017D0000112AA8005B030BD84080020740B0020DF
:1017E000FC070108100801080000000000000000CC
:1017F000704700BF00000000000000000000000073
:10180000704700BF00000000000000000000000062
:10181000FEE700BF00000000000000000000000024
:10182000F8B5154D154F16491648174A05F17004BD
:1018300081420DD9043A034652F8046F43F8046B11
:101840009942F9D84B1E1B1A23F0030304331844A2
:10185000874207D97A1E121A22F0030204320021AD
:101860000EF0E2FDA54205D0D5E90420D5E9061722
:101870001035DDE7F8BD00BFA419010844BC012004
:1018800044BC012044BC0120F08601080000000097
:1018900008B51048FFF7ACFC302383F311880E4BDA
:1018A0005B6813F4006302D183F3118808BDEFF382
:1018B0000983203B4FF08072DA6183F30988074A7D
:1018C0001168D2688968926891428CBF044A054ABF
:1018D0009A6108BD3809002000ED00E0900A002060
:1018E000E3020008E602000800000000000000001B
:1018F00008B51048FFF77CFC302383F311880E4BAA
:101900005B6813F4006302D183F3118808BDEFF321
:101910000983203B4FF08072DA6183F30988074A1C
:101920001168D2688968926891428CBF044A054A5E
:101930009A6108BDB809002000ED00E0900A00207F
:10194000E3020008E60200080000000000000000BA
:101950002DE9F0474FF080463369F2681340DAB260
:10196000D2439B0732610BD4302383F311884E4B53
:101970005B6813F400635ED183F31188BDE8F087E0
:10198000302383F31188494D4FF0000A05F1100709
:101990004FF030082C69EA69716AA368881A984286
:1019A00002EB030934D3D4E90032C5F81C9013606C
:1019B0005A60C4F800A02B69BB4208BFC6F80CA04F
:1019C0008AF31188D4E903312046984788F31188B7
:1019D0006369002BDED0716AA1EB090083423ED31C
:1019E0002A69BA4255D091688B4204D912685B1AB1
:1019F00091689942FAD3A36091682260C91A53682A
:101A000063601C604FF0FF33C2E90141AB61BFE787
:101A1000BC420CD05B1A1344022BE961A36038BFAF
:101A20000223CA187263726A511A8B4220D90023AA
:101A300083F3118898E7EFF30983203B4FF080721E
:101A4000DA6183F30988194A1168D2688968926853
:101A500091428CBF164A174A9A61BDE8F0876B6BBA
:101A60002A6943F00203BA426B6319D00346BAE70E
:101A700002234FF080410133D0184863486A821A2C
:101A80009A420FD2022BD2D96B6B43F001036B63E6
:101A9000CDE75B1A03EB090220460CF089F9C6E793
:101AA0000022F9E70246E6E700ED00E0900A002098
:101AB000E3020008E6020008000000000000000049
:101AC000D0E91D2310B50C68B1F804C003EB540332
:101AD000B3FBF4F3B1F90440002C05DA23F007045A
:101AE00003F0070343EA44039360B1F806E00B896F
:101AF0004EF0400143F00103116153614CF4045373
:101B00000CF4A05C43F02C030021BCF5806FD36083
:101B100011600CBF7F23FF231168526880F87C306E
:101B200010BD00BF00000000000000000000000029
:101B3000884A89481369DFF824C22DE9F04F40F242
:101B4000FF14234313611169DFF81492DFF814A224
:101B5000DFF81482DFF814E2854F21F4FF7121F0E1
:101B6000010111611169116B21431163116D214351
:101B7000002311657F4C166D43606FF4A8458560A6
:101B80004FF6FF71C4607C4C416104627B4C44623F
:101B900004F12A5404F5B01404604FF41070C9F82D
:101BA00004004FF0FF30C9F80800C9F80CA04FF04E
:101BB000806AC9F814104FF0400BC9F820A0DFF874
:101BC000C0A1C9F824B0C9F800A009F1A25909F5CB
:101BD000443909F5AA79C8F80430C8F80800C8F8EB
:101BE0000C904FF0C049C8F81410C8F82090DFF8E6
:101BF0009491C8F82490DFF89091C8F80090DFF82D
:101C00008C81CEF80430624ECEF80800614DCEF8DB
:101C10000C80614C40F6FF78CEF81480DFF87C81B0
:101C2000CEF82030CEF82430CEF80080CCF8043046
:101C3000CCF80800CCF80C30CCF81410CCF82030DC
:101C4000CCF82430CCF800B07B60B860FB607961E0
:101C50003B627B623B607360B060F36071613362D2
:101C6000736233606B60A860EB6069612B626B62CA
:101C70002B606360A060E36061614FF0805123627C
:101C800063622360116446494FF440430B6013685C
:101C900043F00103136013689D07FCD593682D4939
:101CA00023F0030393608B6813F00C03FBD10A68E5
:101CB000284802F0F9020A608B600B6843F4803315
:101CC0000B6003689C03FCD5436F224A43F0010379
:101CD0004367536F9907FCD5324B53601368304903
:101CE00043F0807313604B685A04FCD5194A13689B
:101CF0009B01FCD52C4B2D4991601A682C4B9A42C4
:101D00001ED02C4B40F205721A602A4A136803F069
:101D10000F03052BFAD10F4A936843F00203936037
:101D2000936803F00C03082BFAD1536C43F48043FF
:101D30005364536E43F480435366536EBDE8F08F93
:101D40001D4A1E4B12689A42DBD11A4B40F2051213
:101D50001A60DAE70038024000000240001002403A
:101D6000000402401545515500080240000C024095
:101D700000140240540001400000565500AA0A0019
:101D80008020080000060600018020025550550002
:101D900000180240001C02400020024000010055D3
:101DA0000070004008544007002004E00094883888
:101DB00011640020003C024000ED00E041C20F41F0
:101DC00027490B69984230B40ED00368D0E9014529
:101DD0009A6823602A44C3E9014200224FF0FF338E
:101DE00002608B6130BC70470B46026843F8102FCD
:101DF0000025536005600C699C422AD08368A26864
:101E00004FF0804C1A44A260DCF82400CB69C41A5D
:101E1000A242E7D91B1A1344022B38BF0223C2186F
:101E2000CCF83420DCF82420101A834298BF022317
:101E3000D8D80133D018CCF83400DCF82400821A4A
:101E40009A420AD2022BCDD94B6B43F001034B636C
:101E5000C8E74FF08043DD60C4E70246E9E700BF12
:101E6000900A0020000000000000000000000000B8
:101E700030B5302387B083F31188154C154BE568D6
:101E80000121CDE903356846002305930BF0C0FF1F
:101E90002068082385F82430036823605C600123F0
:101EA00080F824302946E060FEF70AFA009B13B15F
:101EB0006846FFF785FF002383F31188302282F301
:101EC00011884FF08042506A83F3118807B030BD0B
:101ED000900A0020511000080000000000000000DF
:101EE000184B30B5DA6803F120018A4287B002D27C
:101EF000511CD9601070302383F31188124C134B9E
:101F0000E5686421CDE903356846002305930BF0AD
:101F10007FFF2068082385F82430036823605C6015
:101F2000012380F824302946E060FEF7C9F9009BC0
:101F300013B16846FFF744FF002383F3118807B00D
:101F400030BD00BF740B0020900A00205110000823
:101F50000D4A1068D168036810B401245A6080F8F3
:101F600024400024136081F824408B698C68D06081
:101F70001B689A68A242FBD85A6810BCC1E90032BB
:101F800011605960FEF79CB9900A00200000000023
:101F900008B5302383F31188002282F3118883F37C
:101FA0001188EFF311825AB9EFF3058283F3118898
:101FB000EFF30583C3F3080333B1002383F31188E0
:101FC000002383F3118808BD044B1A68DB6892680C
:101FD0009B689A42F1D9FFF7BBFFEEE7900A002019
:101FE0002DE9F843294C2A4EE368D3F808800122F2
:101FF000326008EB0205302282F311881F6C9A6868
:10200000974238D0954236D81D6423689A68E368B1
:102010009B689A4201D9FFF79BFF002383F3118845
:10202000B8452AD1E3689A6895421DD102223260F0
:10203000302282F31188D3F840909A68914523D0DA
:10204000904521D81F6423689A68E3689B689A4288
:1020500001D9FFF77DFF002383F311884D450CD193
:10206000E3689B68984504D00A4BB36040F20112C4
:10207000B280BDE8F8839D60C6E7074BB36040F2CD
:102080000112B280BDE8F8839F60DBE7900A002070
:10209000740B0020400801081C0801080000000023
:1020A0002DE9F8433A4D3B4EEB689C68022204F15F
:1020B00002093260C3F8089004F10108302282F36B
:1020C00011881F6C9A68974244D0904542D8C3F853
:1020D00040802B689A68EB689B689A4201D9FFF7A9
:1020E00037FF002383F31188BC4236D1EB689A682E
:1020F000914539D11A6C90453CD103223260A71822
:10210000302282F31188D3F840909A68914537D0F5
:10211000974235D81F642B689A68EB689B689A428F
:1021200001D9FFF715FF002383F31188C84514D1A7
:10213000EA6891688F4217D1126C974222D104222B
:102140003260302282F31188EA689460146483F369
:10215000118807E0C3F80880B9E70F4BB36040F27D
:102160000112B280BDE8F8830C4BB36040F201125B
:10217000B280F7E70A4BB36040F20112B280F1E798
:102180009F60C7E7074BB36040F20112B280E9E7F6
:10219000900A0020740B00201C0801084008010868
:1021A0005C0801088408010800000000000000002D
:1021B00010B53023044683F3118815490B687BB1B1
:1021C00000200860986283F824009A699868126871
:1021D00091688142FBD25168C3E900210B605360D2
:1021E0000C4B1A68DB6892689B689A4201D9FFF72A
:1021F000AFFE002383F31188074BDA6803F1200157
:102200008A4203D22178501CD860117010BD00BFE3
:10221000F8160020900A0020740B00200000000037
:1022200008B5302282F311888368002B0CDD084B3F
:102230001A68DB6892689B689A4201D9FFF788FEAA
:10224000002383F3118808BDFEF73AFFEFE700BFD4
:10225000900A0020000000000000000000000000C4
:102260002F4B70B5DD680C4603F120018D4204D27E
:1022700061696E1C6131DE602970636A23F00803B6
:1022800063620AB9002070BD302383F31188236A8A
:10229000002B636A3BDB190721D49A062FD4C2694D
:1022A00000F11401C4E90221D460C46103F01203F7
:1022B00043F0010363623030FEF702FF236A01330B
:1022C0002362184B1A68DB6892689B689A4201D9AE
:1022D000FFF73EFE002383F31188002070BDD4E990
:1022E0000032016A13605A6000F114030022C4E94D
:1022F00002318C6001230462C4E90422DAE7026A35
:1023000000F11401C4E9021294600462CEE703F004
:102310001A0304F118006362FEF7D2FED1E700BF92
:10232000740B0020900A0020000000000000000054
:102330002DE9F84F5A4C5B4B042104F12402012093
:10234000C4E90922C4E901310822E062A16304F171
:10235000300055492260C4E90C0000225348E16373
:1023600004F1140652492061C4E90522266203F1F2
:1023700040022164C3E9003308339342FAD14B4B46
:102380004C4903F1F00C0127002200E02B4603F139
:102390003C0503F1180065459960C3E906001F621A
:1023A000DE60CB60C3E90422C3E909721946EDD1AE
:1023B000414B424DE3610223DFF804A1414F2B6002
:1023C0004FF000084FF030092AE0236ADBF80410D0
:1023D000DBF800200A605160CBE90263C3F808B063
:1023E0000023C4F820B0CBE904330123CBF8243018
:1023F0005046FEF765FEDBF820300133CBF8203085
:102400003A68FB6892689B689A4201D9FFF7A0FD81
:10241000002383F3118808F10108B8F1080F57D0A1
:1024200040460BF045FA436A9A07834619D51807C8
:102430001ED589F31188DBF82030002BDBF824301F
:1024400025DB1907C1D49A0619D4E269CBE9022623
:10245000C2F80CB0C4F81CB003F0120343F001033F
:10246000C4E7194BAB6040F20112AA80BDE8F88FB7
:10247000164BAB6040F20112AA80BDE8F88F226AC9
:10248000CBE90262C2F808B0C4F820B0E4E703F078
:102490001A03CBF824300BF11800FEF711FEAFE75A
:1024A000480A0020BC0B002061220008BC0C002060
:1024B000E10D00085C0A0020700D0020740B002064
:1024C000780A0020900A0020A4080108B00801083A
:1024D000B049B148FEF71CF881460028C6D1032355
:1024E000DFF8B8A22B6048460BF0E2F9436A834656
:1024F0009807B6D5190740F13B8143F00803CBF8A4
:1025000024300022E36B594650469847002840F09B
:102510003B81DBF824309A07A3D513F0080840F07C
:102520002D81302383F31188DBF82030002BDBF87A
:102530002430C0F25581180740F13C81DBE90021CD
:10254000236A0A605160CBE90263C3F808B0C4F89B
:1025500020B0CBE904880123CBF824309048FEF763
:10256000AFFDDBF820300133CBF820303B689A68B0
:10257000FB689B689A4201D9FFF7EAFC002383F3CA
:10258000118809F10109B9F1080FACD181498548D9
:10259000FDF7BEFF00287FF469AF0423DFF8FC914C
:1025A0002B604FF0300A40460BF082F9436A9A07DD
:1025B00001467FF556AF180740F1DA8043F0080373
:1025C0004B620122E36B48469847002840F0DC80CC
:1025D00040460BF06DF9436A9A077FF542AF13F05E
:1025E000080340F0CB808AF31188026A002AC0F207
:1025F0002A81426A110740F1FC80D0E9001C226A5E
:10260000CCF80010C1F804C0C0E9026290602062FA
:10261000C0E904330122A36B42620133002BA363A0
:1026200040F3F380036A013303623B689A68FB68F6
:102630009B689A4201D9FFF78BFC002383F3118832
:1026400008F10108B8F1080FADD152495548FDF71E
:102650005FFF814600287FF409AF05232B604FF010
:10266000040A834650460BF023F9436A99077FF525
:10267000F8AE13F0080840F08180302383F311880E
:10268000036A002B436AC0F21A811A0740F1E38003
:10269000D0E90021236A0A605160C0E902639860B2
:1026A0002062C0E9048801234362A36B0133002B3D
:1026B000A36340F3EE80036A013303623B689A68C8
:1026C000FB689B689A4201D9FFF742FC8BF31188A3
:1026D0000AF1010ABAF1080FC4D12E492E48FDF7BC
:1026E00017FF814600287FF4C1AE06232B604FF010
:1026F000300A834640460BF0DBF8436A9A077FF5C1
:10270000B0AE1B0734D58AF31188036A002B436AE5
:10271000C0F2F880190740F1B080D0E90021236AA7
:102720000A605160C0E9026398602062C0E90499C0
:1027300001234362A36B0133002BA36340F3C680E4
:10274000036A013303623B689A68FB689B689A429C
:1027500001D9FFF7FDFB8BF3118808F10108B8F1EF
:10276000040FC7D1BDE8F84F0A490B48FDF7D0BEAA
:102770000D4BAB6040F20112AA8077E60B4BAB60C9
:1027800040F20112AA8071E6094BAB6040F20112DF
:10279000AA806BE6C8080108381B0108480A002017
:1027A000780A0020F8080108F0080108EC08010880
:1027B000DC08010899060BD4E269CBE90226C2F8CD
:1027C0000CB0C4F81CB003F0120343F00103C3E6DD
:1027D000226ACBE90262C2F808B0C4F820B0F2E77E
:1027E00003F01A03CBF824300BF11800FEF768FC55
:1027F000BCE6930621D4E369C0E90236D860E06103
:1028000002F0120242F0010205E7236BDFF804C177
:10281000196821630022C1F804C09A6283F8242059
:1028200099689A691268D2F808C08C45FAD2516842
:102830001A6059600B605360F4E6236AC0E90263D2
:1028400098602062DCE7436A03F01A0343621830A1
:10285000FEF736FCE9E6990609D5226AC0E902626C
:102860009060206203F0120343F001031CE7E26969
:10287000C0E90226D060E061F4E79A063CD4E26940
:10288000C0E90226D060E06103F0120343F00103C7
:102890004FE7226B1F49136823635960916993685E
:1028A000C2F8289082F824900968D1F808C09C45A5
:1028B000FAD24B68116053601A604A60FBE603F07D
:1028C0001A0343621830FEF7FBFBF7E6236B11494E
:1028D0001A682263516099699A68C3F8289083F84E
:1028E00024900968D1F808C09445FAD24A68196062
:1028F0005A6013604B6023E7226AC0E9026290606D
:102900002062C1E703F01A0343621830FEF7D8FBD8
:1029100019E700BF780A0020000000000000000056
:1029200070B5194C4B1CE56886B006461CD0174B99
:102930006846CDE90335002305930BF069FA20685A
:1029400085F82460036823605C60012380F82430EC
:102950002946E060FDF7B4FC009B13B16846FFF721
:102960002FFAA86A06B070BD206885F82460036855
:10297000236001225C60294680F82420E060FDF796
:102980009FFCA86A06B070BD900A00205110000894
:102990002DE9F04F83B0D0F81C8001929A464FF099
:1029A000300989F3118882B3DDF804B004460F467C
:1029B000A368D4E904609B458CBFA5685D46361AC0
:1029C000AE422FD828D2324639460DF079FDAA1BE7
:1029D000E0680092B9190DF073FDE368009A1A449B
:1029E000A36862615B1BA3601DB3B8F1000F01D047
:1029F0002046C047002383F31188ABEB050B2F441F
:102A000089F31188BBF1000FD2D10198002383F321
:102A1000118803B0BDE8F08F2A4639460DF050FD0D
:102A2000E268DDE72A4639460DF04AFD62692A442C
:102A3000D6E70C4BDB68BAF1000F0AD0626851464A
:102A4000C3E90042042013606360FFF769FF0028B8
:102A5000AED0019BA3EB0B00002383F3118803B0DE
:102A6000BDE8F08F900A0020000000000000000088
:102A70004FF0FF333030FFF78BBF00BF0000000086
:102A80003030FFF785BF00BF0000000000000000ED
:102A900070B5302304460D4683F31188164E08E0C6
:102AA0006268C3E9004213606360FFF739FF0028E2
:102AB00008DBA3682946042043B9F368002DEFD151
:102AC0004FF0FF30002383F3118870BDA368A16924
:102AD000013BA36023694A1C9A4228BFE368A261B4
:102AE0000D7828BFA361E3690BB120469847002306
:102AF00083F31188284670BD900A00200000000072
:102B00004FF0FF310C30FFF7C3BF00BF00000000E3
:102B10000C30FFF7BDBF00BF000000000000000048
:102B20002DE9F04F83B0C76901929A464FF0300902
:102B300089F31188002A33D0DDF804B004460E462C
:102B4000A268A169934522698CBFA5685D46A2EB86
:102B50000108A84531D82AD2A5EB080342463046E1
:102B600000930DF0ADFC06EB0800DDF80080E16895
:102B700042460DF0A5FCE1684144A268A161521BE8
:102B8000A2600DB30FB12046B847002383F311882C
:102B9000ABEB050B2E4489F31188BBF1000FCFD1AD
:102BA0000198002383F3118803B0BDE8F08F2A4613
:102BB00030460DF085FCE168DFE72A4630460DF02F
:102BC0007FFCA1692944D8E70C4BDA68BAF1000F01
:102BD0000AD061680420C2E900410A60514662607F
:102BE000FFF79EFE0028ABD0019BA3EB0B00002358
:102BF00083F3118803B0BDE8F08F00BF900A002076
:102C00004FF0FF330C30FFF78BBF00BF0000000018
:102C10000C30FFF785BF00BF00000000000000007F
:102C20002DE9F041302304460F46164683F3118800
:102C3000DFF8608008E06568C3E900452B606360E9
:102C4000FFF76EFE002809DBA3683146042053B964
:102C5000D8F80C30002EEED14FF0FF30002383F374
:102C60001188BDE8F0816269A368511C013B616174
:102C7000A3601770D4E904329A4224BFE368636109
:102C8000E3690BB120469847002080F31188BDE826
:102C9000F08100BF900A002000000000000000004A
:102CA0004FF0FF323030FFF7BBBF00BF0000000025
:102CB0003030FFF7B5BF00BF00000000000000008B
:102CC0002DE9F843044688469146302383F3118862
:102CD0002E4E00F1180707E0E569C3E900752B6087
:102CE000E361FFF71DFE88B9237D4946042093B9AF
:102CF000D4E900252369A5EB020CB3EBAC0F11D18D
:102D0000F368B9F1000FE7D14FF0FF30002383F3F0
:102D10001188BDE8F8836FF00100002383F3118868
:102D2000BDE8F883A068011DA1608D42216AC0F84A
:102D3000008004F1200088BFA268A26001338842AD
:102D4000236111D00B682362002258608B69886868
:102D50008A6281F824201B689A688242FBD25A68F2
:102D6000C1E9003211605960084B1A68DB6892684B
:102D70009B689A4207D9FFF7EBF80020002383F302
:102D80001188BDE8F8830020C0E700BF900A00204A
:102D90002DE9F843264F04468846914600F1200667
:102DA0000AE023698BB9FB68656AC3E900652B609B
:102DB0006362FFF7B5FD30B9237D49460420002B3F
:102DC000EFD06FF00100BDE8F883E1680A180968E8
:102DD000E260C8F8001061688A4224BF2268E2609D
:102DE000A26904F11801013B9142236111D01368DB
:102DF000A3610020596094689369906282F824006E
:102E00001B689968A142FBD25968C2E900310A6087
:102E10005A60074B1A68DB6892689B689A4204D92B
:102E2000FFF796F80020BDE8F8830020CBE700BF4D
:102E3000900A0020000000000000000000000000D8
:102E40002DE9F041554F564E012382B03B6042249C
:102E500021464FF0FF323046FFF732FF013405467E
:102E600000283CD1462CF3D102234D483B6001227F
:102E70005821FFF725FF013031D14FF0300888F39A
:102E80001188347D002C7ED1D6E900133269581A9E
:102E9000B2EBA00F2BD0B4680132201D5825B060D2
:102EA00083422560336A32613E4A88BFB168B160AF
:102EB000934264D018683062002142609A69986831
:102EC000996283F82410126891688142FBD251689C
:102ED0000020C3E900210B60536080F31188324B5E
:102EE000BB6040F20112BA8002B0BDE8F08184F309
:102EF0001188012158200AF0D3FD0130EFD188F369
:102F0000118858200AF08CFD84F311880130E6D135
:102F100003233B600AF024FE04233B60347588F3EE
:102F2000118801220DEB03011D48FFF731FF84F3E7
:102F300011880130D3D188F31188337D53BB3269B6
:102F400022B3F1680B1D096801917168F3608B422F
:102F500024BF3368F3601549B369013A8B4232618B
:102F60000DD01A68B261002051609C689A6998621D
:102F700083F8240012689168A142A8D3FAE70023DD
:102F800083F31188ABE785F31188A8E7002383F367
:102F90001188A9E784F31188A1E700BF740B002012
:102FA0004C0800206C080020040901086408002077
:102FB0002DE9F043234DDFF8909083B0302705F1E1
:102FC0001C0887F311884FF0FF3201A94046FFF734
:102FD000DFFE0023044683F3118810B103B0BDE87F
:102FE000F083019E3368002BF8D07068984787F310
:102FF0001188D5E902320133002B3260C5E902366F
:103000000DDDD9F80020D9F80C3092689B689A42FF
:1030100001D9FEF79DFF002383F31188D1E72B68C8
:103020001A682A60556098689A699C6283F82440FF
:10303000126891688142FBD251681A6059600B6036
:103040005360DEE7380C0020900A002000000000EA
:1030500010B53023044683F311888268531E002B79
:10306000836007DBE068C8B10368E360002383F393
:10307000118810BD0846D9B10E4B6268DB68052087
:10308000C3E900429C6213606360FFF749FC0028BB
:10309000E8D00020002383F3118810BDA369002B22
:1030A000F7D0D4E904019847002383F3118810BDB9
:1030B000A260DBE7900A0020000000000000000092
:1030C0002DE9F047504F514D514CDFF84891012305
:1030D0003B604FF0040A4FF03008002610E0D9F8AA
:1030E0000020D9F80C3092689B689A4201D9FEF70B
:1030F0002FFF86F311882369BAF1010A1D441CD001
:1031000088F31188D4E902320133002BC4E9023577
:103110002A60E4DC226813689068916923605C602F
:10312000966282F8246009688B688342FBD24B6800
:10313000C2E900131A604A60D1E70223344E3B60B3
:10314000042500213046FFF783FF002842D0013DCF
:10315000F7D103232E483B602946FFF779FF90BB48
:10316000DFF8A8A004233B600AF11008302651467E
:1031700086F31188D4E902320133002BC4E902310D
:103180004AF8042B2DDDD9F80020D9F80C309268CC
:103190009B689A4201D9FEF7DBFE85F31188D04582
:1031A000E5D105231A4D3B60042400212846FFF792
:1031B0004FFF78B1013CF8D1062315483B6021460A
:1031C000FFF746FF58B1144BBB6040F20112BA80C2
:1031D000BDE8F087114BBB6040F20112BA80BDE838
:1031E000F08722681368916990685C60236095623B
:1031F00082F8245009688B688342FBD24B681160C7
:1032000053601A604A60BEE7740B0020AC0D0020CA
:1032100010080020900A0020D0070108C407010808
:1032200010B5084C084801234FF47A712360FFF76A
:103230000FFF00B910BD054BA36040F20112A28040
:1032400010BD00BF740B002010080020D00701083B
:1032500070B5484C012386B02360EFF311836BB93E
:10326000EFF30583302383F31188EFF30583C3F372
:103270000803002B73D0002383F3118802232360FB
:10328000302383F31188EFF3118262B9EFF30582E3
:1032900083F31188EFF30583C3F30803002B54D0A5
:1032A000002383F31188002383F311880323236011
:1032B000EFF3118313B9302383F31188EFF31183F4
:1032C00013B9302383F31188002383F31188042278
:1032D0002260302282F31188EFF311820AB183F366
:1032E0001188EFF3118313B1002383F311880522B2
:1032F000002300932260302383F31188009B6E46E5
:1033000013B13046FEF75CFD1B4B00250121304612
:10331000CDE9033505950AF07BFD85F3118830264C
:1033200086F311880A210820FFF7FAFA85F311883D
:1033300086F31188009B85F3118823B10F4BA3609E
:1033400040F20112A28006B070BD0D4B1A68DB6816
:1033500092689B689A42A3D9FEF7FAFDA0E7084B52
:103360001A68DB6892689B689A4284D9FEF7F0FD80
:1033700081E700BF740B0020911F00081C090108A1
:10338000900A002000000000000000000000000083
:103390002DE9F84FDFF894800121C8F800104FF0B4
:1033A000300989F31188224E4FF080474FF0000A10
:1033B000786AD6E90823801A841843F10005C6E923
:1033C00008458AF3118889F311880820FFF7A8FAC5
:1033D0008AF3118889F31188D7F824B08AF3118809
:1033E000D64642F20F7A04E07B6AA3EB0B03534507
:1033F00019D889F311887B6AD6E908011B1AA446FB
:103400001C182A4641F10005C6E908458EF31188CB
:10341000644575EB0202E7D2064BC8F8083040F26B
:103420000112A8F80420BDE8F88F00BF740B00203B
:10343000900A002030090108000000000000000090
:103440002DE9F041374D01234FF080442B60D4F833
:103450002480302686F3118864210820FFF760FA63
:10346000002787F31188636A643BA3EB0803022BF0
:1034700051D802232B60D4F8248086F311884FF4AE
:103480007A710820FFF74CFA87F31188636AA3F575
:103490007A73A3EB0803022B3DD803232B60D4F8E7
:1034A000248086F311884FF47A710820FFF738FAE8
:1034B00087F31188636AA3F57A73A3EB0803022BE1
:1034C00029D804232B60D4F8248086F3118842F293
:1034D00010710820FFF724FA87F31188636AA3F5B7
:1034E0001C53103BA3EB0803022B14D805232B60BD
:1034F000676A643786F31188616A791A02D00820F6
:10350000FFF70EFA002383F311884FF080435B6AC4
:10351000DB1B022B04D9044BAB6040F20112AA80E2
:10352000BDE8F081740B0020400901080000000094
:1035300010B5302484F311884FF4FA710820FFF796
:10354000EFF9002181F3118884F31188124A9368FE
:1035500001338B4293600CDD104B1A68DB68926874
:103560009B689A4201D9FEF7F3FC002383F311888C
:1035700010BD13681C689869146062609C68996249
:1035800083F8241000688268A242FBD24268C3E933
:10359000000213604360DFE7BC0D0020900A0020AA
:1035A00038B50446302585F311884FF4FA710820A8
:1035B000FFF7B6F9002383F3118885F31188A36B15
:1035C00094F8242043F001030A2AA36321D00B2A94
:1035D0000CD0124B1A68DB6892689B689A4201D93A
:1035E000FEF7B6FC002383F3118838BDA26A9A4324
:1035F000EFD10022A369A168A26284F824201B688D
:103600009A688A42FBD25A68C4E9003214605C604E
:10361000DFE7A26A1342ECD1DBE700BF900A00208B
:1036200070B5302383F31188154C16480021FDF73F
:103630009FFD2268E36892689B689A4201D9FEF771
:1036400087FC002585F31188302686F311884FF416
:10365000FA710820FFF764F985F3118886F3118861
:1036600009482946FDF784FD2268E36892689B6853
:103670009A4201D9FEF76CFC002383F3118870BDD8
:10368000900A0020080800200C080020000000001C
:10369000F8B5464C464D01232360E968302383F397
:1036A00011888B6B002B43D183F31188E96830229A
:1036B00082F311888B6B002B4AD183F31188E96860
:1036C00082F31188886B013058D083F3118802236C
:1036D000EF68236082F31188BE6B002E42D07342E4
:1036E00026EA0302BA631E40002383F311884EBB0F
:1036F000EE68302383F31188B76B002F40D000238E
:10370000B36383F31188EFB9ED68302383F3118835
:10371000AB6B013309D04FF0FF33AB624FF4FA715A
:103720000B20FFF7FDF800283CDB0023AB6311E022
:103730005A4223EA020088631A40002383F3118867
:10374000002AB3D01B4BA36040F20112A280F8BD47
:1037500000238B6383F31188164BA36040F20112A0
:10376000A280F4E74FF0FF33BB624FF4FA710A20F6
:10377000FFF7D6F800280FDBBE6BB0E78B63E9E7F5
:103780004FF0FF33B3624FF4FA710A20FFF7C8F825
:10379000002804DBB76BB2E786F31188A8E787F34C
:1037A0001188B1E7002383F31188F8BD740B002062
:1037B000900A0020540901080000000000000000E9
:1037C0002DE9F84F0546302686F31188012108209F
:1037D000FFF7A6F84FF0000A8AF3118886F31188E4
:1037E0004FF08043D3F824908AF31188214C05EBE5
:1037F00006084FF0010B574619E0E16820680C23DA
:1038000081F82430036823605C6080F824B0E060B5
:10381000FCF756FD87F311884FF0804342F20F7298
:103820005B6AA3EB090393420AF1010A1BD8E36820
:1038300086F311886A6BC3F828B0C3E9008213606D
:1038400095F824206B630E2AD7D1AB69A96885F857
:1038500024701B689A688A42FBD25A682B606A609F
:1038600015605D60C9E700212846FDF7D9FD504687
:10387000BDE8F88F900A0020000000000000000062
:1038800010B4164C8268E368816299688A4216D93E
:10389000002283F824209A691268D2F808C0614592
:1038A000FAD351684FF0010CC3E900210B6053605B
:1038B0001946E06080F824C010BCFCF701BD00216F
:1038C000836980F824101B6899688A42FBD95A687A
:1038D00010BCC0E90032106058607047900A0020A8
:1038E000F8B53C4D01222A60302686F311883A4C07
:1038F000A368013B002BA36044DB002383F3118802
:1039000086F31188A36823BB83F3118802232B60FD
:10391000302383F31188A3680133002BA36021DDDA
:10392000002686F31188302787F31188A368012BBE
:1039300020D186F31188032327482B6002210AF047
:1039400007FA87F31188A368022B13D186F3118835
:10395000F8BD224BAB6040F20112AA80002383F332
:103960001188F8BD20680368236000215C60FFF7C0
:1039700087FFD5E7194BAB6040F20112AA8086F3AE
:103980001188F8BD164B6168DF681868BC62C7E92A
:1039900000410F60052187F82410016867601960F5
:1039A0004B6080F824203946D860FCF789FCBA6A5D
:1039B000002383F3118886F31188A368002BC8D1F4
:1039C00083F31188002AA1D0064BAB6040F20112AC
:1039D000AA80F8BD740B0020BC0D0020640901080A
:1039E000900A002078090108000000000000000093
:1039F00010B5302383F311881A4CA368013B002BC8
:103A0000A36018DB002181F31188302383F3118830
:103A1000A36801338B42A36003DD002383F3118885
:103A200010BD2068036823605C60FFF729FF002356
:103A300083F3118810BD0C4B6268D9680520C1E979
:103A400000428C62116081F824001868616002688D
:103A50001A605360012280F82420D860FCF730FC03
:103A6000D0E700BFBC0D0020900A0020000000003D
:103A70002DE9F047184F30264FF00E094FF001089E
:103A800010E003682B630D225C6080F824208AF329
:103A90001188846A86F311882146FFF7F1FE8AF3C4
:103AA0001188BCB186F31188FD682C464FF0000ADE
:103AB00054F8300FA042E4D1386885F824900368A8
:103AC0003B605F60294680F82480F860FCF7F8FBD3
:103AD000286BD6E7BDE8F087900A002000000000C0
:103AE00030B5D0E90234456843F8285C05691C4AC2
:103AF00043F86C5C0021456943F8685C4FF0020EA6
:103B00004FF0010C056803F8231C03F824EC03F8BC
:103B100022CC43F8404C43F8084CD46A43F82C5C60
:103B2000104D43F84C5CA3F16C05A3F1380043F849
:103B30003C5C02F1280543E9041143F8344C43F896
:103B4000302CA3F1180143F8385C2060A3F11C0469
:103B5000D06243E90741A3F1480043F8141C30BD8B
:103B6000900A0020D10200080000000000000000C0
:103B700038B5302484F3118848394418184944F87A
:103B8000041CA4F1240144F8243CE160154BA2601C
:103B90000221A184012184F82610226403F1280265
:103BA00022610499DA6A206244F8201C002504F19D
:103BB00010010D48E0616261A361C4E90E5504F192
:103BC0002C00116004F13002D9626263C4E90B0277
:103BD00029462046FFF754FE85F31188204638BD5C
:103BE000D1020008900A002090090108000000009E
:103BF00030B5194B194CDB6883B09A68184B002517
:103C0000012001324FF4D871009520601548FFF76C
:103C1000AFFF154A0223106023600BF0D9FD134B50
:103C20001D689D4211D1AB6843B9032323600BF09B
:103C3000CFFD2B68AB4208D19B6823B10C4BA3602E
:103C400040F20112A28003B030BD0A4BA36040F2E3
:103C50000112A28003B030BD900A0020740B002036
:103C6000F1390008D80D0020E4160020BC0D00201A
:103C7000A8090108980901080000000000000000E0
:103C80002DE9F047794C86B003AE4FF001080025CE
:103C9000CDE90366C4F800800595302787F31188C5
:103CA000059BAB427ADC85F3118802232946304616
:103CB00023600AF04DF887F31188059BAB426DDC59
:103CC00085F31188DFF8A8916A4BD9F80C206A486F
:103CD0009268009603212160013A4FF4D871FFF7F2
:103CE00047FF664B18600423236087F31188059B08
:103CF000013B002B05936EDB85F3118887F3118858
:103D0000059B002B54DC85F31188052323603023A9
:103D100083F31188059B002B40F39780D9F800208E
:103D2000D9F80C3092689B689A4201D9FEF710F9D5
:103D3000002383F31188302282F311880599994278
:103D400041DD83F3118882F311880599012974D12B
:103D500083F311880623236082F31188059B002BCF
:103D60007FDDD9F80020D9F80C3092689B689A4220
:103D700001D9FEF7EDF8002383F31188302282F396
:103D800011880599994264DD83F3118882F31188C3
:103D9000059A012A51D183F3118806E0384BA360BC
:103DA00040F20112A28085F3118806B0BDE8F087C9
:103DB000334BA36040F20112A280002383F31188E9
:103DC00006B0BDE8F0872F4AA26040F20111A18041
:103DD00083F31188E9E7D9F80CA0049BCAF80060C6
:103DE000CAF80430D9F80000CAF82860C3F800A067
:103DF00005238AF824300368CDF810A05146C3F893
:103E0000049080F82480C9F80030C9F80C00FCF751
:103E100057FADAF8282085F3118887F31188059B73
:103E2000002BC5DC85F31188002A3FF46EAF164BDA
:103E3000A36040F20112A280B7E7144AA26040F2E8
:103E40000111A18083F31188AFE73046FDF738F9FF
:103E500064E70F4AA26040F20111A18083F3118848
:103E6000A3E73046FDF72CF97BE700BF740B002079
:103E7000900A002021220008D80D0020E41600201E
:103E8000BC090108DC090108C8090108E8090108A2
:103E9000C009010800000000000000000000000050
:103EA00070B5302383F311881E4BD968CA6A8862C3
:103EB00001F12C0C944518BF4FF0000E13D191F86E
:103EC00026202AB318680F2281F8242002681A607D
:103ED0004FF0010C536080F824C0BDE87040D860FA
:103EE000FCF7EEB92246146890699668CC6282F8B5
:103EF00024E000688568B542FBD2456810606445DF
:103F000055602A604260EDD191F82620002AD9D16F
:103F100091F825209207D5D1D1E9042002605060A4
:103F2000D0E700BF900A0020000000000000000061
:103F30002DE9F04FDFF88480214F002383B088F80B
:103F4000003030264FF00E0A4FF0010916E02368CA
:103F50000B630D225D6084F824208BF31188A36A23
:103F6000D3E900209047014686F311882046FFF7E9
:103F700087FC8BF3118898F80030C3B986F3118859
:103F8000F9680D464FF0000B55F8304FAC42DED1CA
:103F9000386881F824A0036801915F6080F824905C
:103FA0003B60F860FCF78CF901990C6BCFE740F6A9
:103FB000A57003B0BDE8F04FFFF772BFB80B00204B
:103FC000900A002000000000000000000000000037
:103FD000014B5B6883607047001000E00000000048
:103FE0000E4A0F4B81685B6810B4946802691B1B12
:103FF0005B1AD218416902614268C46841F100014C
:104000009342026888BF436001349342C0E902349E
:10401000416110BC38BF0360704700BF680B0020CF
:10402000001000E0000000000000000000000000A0
:10403000F0B48368364C0246E168002B39D08D68B5
:104040009868854207D993F824009D60062845D0DA
:10405000072834D0E0B1134603E088689D688542A4
:1040600002D31B689A42F8D158680625C1E900308E
:1040700001602068596081F82450036823608A62D7
:104080005C60012380F82430E060F0BCFCF718B9D4
:10409000D3E900673E60776083F824009869006880
:1040A0008668AE42FBD2186045685D602B60436055
:1040B000D1E7CB6BF0BCC0E90213C8637047D3E90A
:1040C00000069D6A30604660284603E086689F6867
:1040D000BE42E8D300688542F8D1E4E7D3E90006A0
:1040E0009D6A30604660284603E086689F68BE424D
:1040F00002D300688542F8D1466818605E6033607C
:104100004360AB688D689868A8429CD3A3E700BF62
:10411000900A0020000000000000000000000000E5
:1041200010B5302484F3118840F2DC510820FEF7EA
:10413000F7FB002383F3118884F311880948FFF704
:1041400077FF0848FCF7DCFF074B1A68DB689268CA
:104150009B689A4201D9FDF7FBFE002383F3118887
:1041600010BD00BF3C080020900A002000000000A5
:1041700038B51F4C3023E56883F311880268C368A3
:10418000EB6382422ED0296C4BB11A68934203D064
:104190009268914238BF1146DB68002BF5D1A960C7
:1041A0000368D96B1A6802605060C0E902319A69ED
:1041B000D8630021986883F82410126891688142BE
:1041C000FBD25168C3E900210B602068E1685360AD
:1041D0008B6882689A4201D9FDF7BAFE002383F307
:1041E000118838BD00239360002383F3118838BD04
:1041F000900A002000000000000000000000000005
:104200002DE9F041184C002818BF04460F46164609
:1042100004F10C08302383F311884046FFF708FFB0
:104220004FF0000C8CF311886368CBB1E64665460D
:10423000D3E90034A44505F10105A64438BFA446DE
:10424000002BF5D117B14FEACE033B6016B14FEA10
:10425000CC0333604046FFF78BFF2846BDE8F08172
:104260009C469E461D46EDE79C0B0020000000008A
:1042700010B53023044683F311880A48FFF7D8FEAF
:10428000002383F31188084BDA6803F120018A4286
:1042900003D22178501CD8601170BDE8104001484D
:1042A000FFF766BF2C080020740B00200000000000
:1042B00030B5302387B083F31188184C184BE5686C
:1042C0004FF4FA71CDE9033568460023059309F0F0
:1042D0009FFD2068082385F82430036823605C6014
:1042E000012380F824302946E060FBF7E9FF009BBA
:1042F00013B16846FDF764FD002484F31188302370
:1043000083F311880748FFF793FE84F3118805486B
:1043100007B0BDE83040FFF72BBF00BF900A002078
:10432000511000082C0800200000000000000000D0
:104330002DE9F0410746302484F311882048FFF727
:1043400077FE002383F3118884F311881D4E1E4DE0
:10435000F468D4F83C804046FCF7D2FEA5622B46B8
:1043600003E09968A268914202D31B68AB42F8D17E
:104370005A68F16823606260306814605C600723EB
:1043800081F82430036833605E60012380F82430B4
:10439000F060FBF795FF4046FFF74AFE002383F3EA
:1043A00011880A4BDA6803F120018A4203D2397876
:1043B000501CD8601170BDE8F0410148FFF7D8BE2D
:1043C0002C080020900A002000080020740B002018
:1043D0002DE9F0410746302484F311882748FFF780
:1043E00027FE002585F3118884F311882448FFF700
:1043F0001FFE85F3118884F31188224E224DF46844
:10440000D4F83C804046FCF77BFEA5622B4603E0D7
:104410009968A268914202D31B68AB42F8D15A68EE
:104420002360626014605C60F4683068072384F87D
:1044300024300368336001225E60214680F8242026
:10444000F060FBF73DFFA36A013302D04046FFF75F
:10445000EFFD002383F311880C4BDA6803F1200190
:104460008A4203D23978501CD86011700448FFF793
:104470007FFEBDE8F0410148FFF77ABE3C0800200E
:104480002C080020900A002000080020740B002057
:1044900010B53023044683F311880A48FFF7C8FD9E
:1044A000002383F31188084BDA6803F120018A4264
:1044B00003D22178501CD8601170BDE8104001482B
:1044C000FFF756BE3C080020740B002000000000DF
:1044D0002DE9F0473A4D3B4CEB683B489E683B4B1F
:1044E0003B4F82B006F10109022100934A46216048
:1044F000384B4FF4D871FFF73BFB06F1020A364BFD
:104500003860524600934FF4D871344B3448FFF76B
:104510002FFB0323786023604FF0300888F3118865
:104520003048FFF785FD002787F31188EB689B680B
:104530009E423CD10423236088F311884FF47A71A2
:104540000820FEF7EDF987F31188EB689B68994521
:104550002DD10523236088F311882348FFF768FDD8
:1045600087F31188EB689B68994520D10623236067
:1045700088F311884FF47A710820FEF7D1F987F398
:104580001188EB689B689A4511D107231648236070
:10459000FFF7EEFDEB689B68994508D108231148A9
:1045A0002360FFF7E5FDEB689B689E4204D00F4B4C
:1045B000A36040F20112A28002B0BDE8F08700BF04
:1045C000900A0020740B0020D80D0020FC0901087F
:1045D000E4160020B1420008000A01082141000849
:1045E000880F00202C0800203C080020040A010845
:1045F0002DE9F0415A4E5B4DF2680223D2F8088053
:104600002B60302787F31188574CF268A3684BB1B1
:10461000002383F31188554BAB6040F20112AA804E
:10462000BDE8F081D16BA260E160D46383F31188AF
:1046300003222A6087F31188A268F168002A66D0F5
:1046400083F31188042320462B60FFF791FDA368B4
:10465000002B69D12268A2426CD1F16889680520DB
:10466000884528604DD10621296087F3118891681B
:10467000F0680029CDD1C36B9060D360C26381F331
:10468000118887F311889368F068002B5BD081F361
:10469000118887F31188F768FB6B23B31A68D86811
:1046A000F86393424CD0106818604360D06BD860B8
:1046B0009A609068D363936982F824101B68D3F8DA
:1046C00008C08445FAD258681360506002605A608E
:1046D000FB6B002BE2D13B6C3268BB60926893426B
:1046E00001D2FDF735FC002383F31188A368DBB901
:1046F0002368A3421ED1F3689B68072298452A606D
:104700008ED01B4BAB6040F20112AA8088E7CB6BC6
:10471000CC63C4E9021382F31188164BAB6040F2FC
:104720000112AA80BDE8F081134BAB6040F2011288
:10473000AA8075E7114BAB6040F20112AA806FE7C7
:1047400099600346C5E7C16BC263C2E9020183F306
:104750001188084BAB6040F20112AA8060E700BFED
:10476000900A0020740B00202C0800201C0A01086D
:10477000040A01082C0A0108380A010898090108EE
:104780002DE9F8433C4ECF1D002818BF06460D46C4
:10479000FF0806F10C08302383F311884046FFF729
:1047A00047FC002383F311887468311D0CB919E0AC
:1047B0001C46D4F804C004F10F0222F007020CF1E9
:1047C0000103914604EBC303083AA3EB09009342AB
:1047D0004FEAE00E02D9B7EBE00F14D92368214667
:1047E000002BE5D14046FFF7C3FC3368002B38D0DF
:1047F0000822F80011469847814608B140E9026551
:104800004846BDE8F883944218D3BC452DD0013703
:1048100004EBC70202F108001B1ADB10206844F801
:10482000370004F1080953600A6022464046C2E995
:104830000065FFF79DFC4846BDE8F88304F10803D6
:10484000D31ADB10BE456360F0D9AEEB0703013726
:1048500002EBC701013B4B60236842F8373021600F
:10486000E4E799464846BDE8F883A146224659F850
:10487000083B0B60DAE700BF9C0B00200000000043
:10488000F8B550E902730733DB083D1D40F8043CDE
:104890000646A0F108040C37302383F3118838460C
:1048A000FFF7C6FB002383F311882B469D421A684D
:1048B00001D0A34202D21AB1944201D31346F5E7C4
:1048C00046F8082C56F8042C1C6056F8081C0132D7
:1048D00004EBC20081420AD059684A1C03EBC202B1
:1048E000944211D03846BDE8F840FFF741BC486813
:1048F000104446F8040C0A68596846F8082C4A1C0B
:1049000003EBC2029442EDD156E9020201320A449D
:10491000C3E900023846BDE8F840FFF729BC00BFF4
:10492000D0E90432002113605A6081F3118890F8B5
:10493000253003F00303012B0DD0022B0AD1436C69
:10494000026A302080F31188186810601A6081F3C1
:10495000118870477047006AFFF792BF000000009F
:1049600038B51A4B0446DA68302181F3118890F883
:1049700024100F2910D0C06AD96810600920E262A3
:1049800081F82400186802681A605360012280F8D8
:104990002420D860FBF794FCA56A002282F31188DA
:1049A000302383F3118894F82630013B84F82630B5
:1049B000636A03F0FF130F2B03D082F3118828469C
:1049C00038BD2046FFF7ACFF284638BD900A0020CE
:1049D0002DE9F0433C4C012383B02360302787F35B
:1049E00011883A4EF268936B43F0070393630025F6
:1049F00085F311880223236009F082F9012849D147
:104A000009F07EF9022845D109F07AF90428804698
:104A100040D187F31188F368D3F838909D6385F30C
:104A20001188B9F1000F3DD103232360FDF720FA6F
:104A3000F168274B8A6800910546013A4FF4D87116
:104A40002448FFF795F8C4F80080DFF88C80C8F898
:104A5000000009F055F94FF080435B6AA3F5FA7343
:104A60005B1B132B2AD8012822D187F31188F36806
:104A70009D6BC3F8389089F311889DB908F114042F
:104A800058F8040B18B1FFF76BFF48F8045C444575
:104A9000F6D104E0114BA36040F20112A28003B0F2
:104AA000BDE8F0830E4BA36040F20112A280F6E74E
:104AB0000C4BA36040F20112A280F0E70A4BA36006
:104AC00040F20112A280EAE7740B0020900A002055
:104AD000A1350008D80D0020E4160020440A010882
:104AE000580A0108640A0108400901080000000092
:104AF0002DE9F04F814DDFF808A2EB6881489A68F4
:104B0000814B824C83B00121CAF80010804900918A
:104B1000053A4FF4D871FFF72BF8EB6820609A68DC
:104B20007C4B0093043A784B7B484FF4D871FFF7E5
:104B30001FF8EB6860609A68784B0093033A724BF9
:104B400077484FF4D871FFF713F8EB68A0609A68C4
:104B5000744B0093023A6C4B73484FF4D871FFF7D3
:104B600007F8EB68E0609A68704B00937048664BFA
:104B7000013A4FF4D871FEF7FBFF04F114062061EF
:104B80002746A1464FF0000859F8040B18B1FFF76B
:104B9000E7FE49F8048CB145F6D166496648FBF753
:104BA000B7FC804610B103B0BDE8F08FEB686048F9
:104BB0009A685E4B00934FF0020C534BCAF800C04A
:104BC000013A4FF4D871FEF7D3FFEB6838619A6869
:104BD000544B0093023A4C4B5348DFF860B14FF40A
:104BE000D871FEF7C5FFEB68F8609A684B4B0093ED
:104BF000033A454B4A484FF4D871FEF7B9FFEB68CA
:104C0000B8609A68434B0093043A3F4B42484FF4D4
:104C1000D871FEF7ADFFEB6878609A683C4B009363
:104C20003848394B053A4FF4D871FEF7A1FF386088
:104C3000ABF11007B94618B1FFF792FEC9F8008032
:104C4000D94502D059F8040FF5E73A493A48FBF73D
:104C50005FFC80460028A6D1EB682F489A682D4B50
:104C600000934FF0030C284BCAF800C0043A4FF4ED
:104C7000D871FEF77DFFEB6878609A68244B00934B
:104C8000053A214B1F484FF4D871FEF771FFEB68CE
:104C900038609A68254B0093013A1B4B24484FF427
:104CA000D871FEF765FFEB6838619A681D4B009379
:104CB000023A154B1C484FF4D871FEF759FFEB68C8
:104CC000F8609A68154B009315480F4B033A4FF460
:104CD000D871FEF74DFF4546B86054F8040B18B183
:104CE000FFF73EFE44F8045CB442F6D11149124885
:104CF00003B0BDE8F04FFBF70BBC00BF900A0020EB
:104D0000740B0020D80D0020E1060008E4160020F6
:104D1000840A0108780A0108880F00207C0A01082B
:104D200038110020000A0108E8120020FC090108DF
:104D300098140020AC070108800A0108F41600202E
:104D40002DE9F043394DDFF8E880EB6839499A687E
:104D500039483A4B3A4C83B04FF001090091013A7F
:104D60004FF4D871C8F80090FEF702FF302320609E
:104D700083F31188EE682868324F032386F82430C5
:104D800003682B60B76231465D6080F824903E6016
:104D9000E860FBF795FAB66A002383F311883B6855
:104DA0008BBB36BB04F1140954F8040B18B1FFF7A0
:104DB000D7FD44F8046CA145F6D10223C8F80030B1
:104DC000302383F311884FF08044EB68656A9F625B
:104DD000642103203B60FDF7A3FD002383F31188CA
:104DE000636A643B5B1B022B17D83B685BB90130DD
:104DF00010D0154BC8F8083040F20112A8F8042072
:104E000003B0BDE8F083114BC8F8083040F201123E
:104E1000A8F8042003B0BDE8F0830D4BC8F80830B3
:104E200040F20112A8F80420F4E700BF900A002025
:104E3000740B0020FC090108D80D0020B1210008E6
:104E4000E4160020F816002078090108880A0108F5
:104E50004009010800000000000000000000000000
:104E600070B5594D594EEB6859489A68594B5A4C90
:104E700082B0012100900532316058484FF4D8715A
:104E8000FEF776FEEB6820609A68554B009301327E
:104E9000504B54484FF4D871FEF76AFEEB686060DF
:104EA0009A68514B009303324A4B50484FF4D871E3
:104EB000FEF75EFEEB68A0609A684D4B00930432EB
:104EC000444B4C484FF4D871FEF752FEEA684A4B07
:104ED000926800930232E0603E4B48484FF4D8712C
:104EE000FEF746FE022333602061302383F31188EE
:104EF000434CA3680133002BA36041DD002181F303
:104F00001188302383F31188A36801338B42A36097
:104F100053DD002181F31188302383F31188A368C6
:104F200001338B42A36041DD002181F311883023DE
:104F300083F31188A36801338B42A3602FDD002126
:104F400081F31188302383F31188A36801338B42E6
:104F5000A3601DDD002686F311881F4C04F11405A3
:104F600054F8040B18B1FFF7FBFC44F8046CA5429D
:104F7000F6D12449244802B0BDE87040FBF7C8BA16
:104F800020680368236000215C60FEF779FCB5E7C8
:104F90002068036823605C60FEF772FCDAE7206833
:104FA000036823605C60FEF76BFCC8E72068036859
:104FB00023605C60FEF764FCB6E72068036823604A
:104FC0005C60FEF75DFCA4E7900A0020740B0020F3
:104FD000FC090108C1140008E4160020D80D0020C7
:104FE000000A0108880F00207C0A010838110020FF
:104FF000780A0108E8120020840A010898140020A9
:10500000BC0D0020AC070108800A01080000000068
:105010002DE9F047604D012382B02B60302686F3E6
:1050200011885E4CA268531E002BA3600ADB00238C
:1050300083F311885A4BAB6040F20112AA8002B090
:10504000BDE8F087A260002383F311882368A342A0
:1050500050D1A768002F55D1DFF848815248D8F8C1
:105060000C209268009702232B60013A4F4B4FF4BB
:10507000D871FEF77DFD4E4B186086F31188A3684A
:10508000013B002BA36045DB4FF0000A8AF3118837
:10509000474E06F1140956F8040B18B1FFF760FCEF
:1050A00046F804ACB145F6D1F7B92368A34221D143
:1050B000A3683BBB03232B60FCF7DAFEDFF8F4A008
:1050C000074641264FF03009EB68534502D25A1C7F
:1050D000EA601E7089F31188A368013B002BA3606E
:1050E00027DB002383F311882D4BAB6040F20112C4
:1050F000AA80A4E7304BAB6040F20112AA8002B054
:10510000BDE8F0872D4BAB6040F20112AA8002B0DF
:10511000BDE8F087D8F80C3062689C62C3E90042B1
:1051200041F28831136005206360FDF7F9FB074603
:10513000AAE7D8F80C3062681C605A609C624FF491
:10514000FA71136005206360FDF7EAFB002383F327
:1051500011880130C8D123680136A342F6B2C9D103
:10516000A368002BCED1462EAED115491548FBF7CA
:10517000CFF900287FF463AF4FF080435B6AA3F65A
:10518000C413DB1B132B7FF65AAF0F4BAB6040F2FF
:105190000112AA8053E700BF740B0020BC0D002051
:1051A00004090108900A0020D80D002031350008BC
:1051B000E4160020940B002098090108A8090108B2
:1051C000AC070108800A010840090108000000003E
:1051D0002DE9F041354F364EFB6836489A68364B1C
:1051E00082B00121009031600A4434484FF4D871F4
:1051F000FEF7BEFC324A022333601060302383F393
:105200001188304DAB684FF0000C981C01E09842BB
:1052100019D00133002BAB60F9DC2A68146891695E
:10522000D2F808E02C60656082F824C009688C68B8
:105230007445FBD24C689842C2E9001422604A606F
:10524000C2F828C0E5D13A68FB6892689B689A4228
:1052500001D9FCF77DFE4FF0000888F31188184C47
:1052600004F1140754F8040B18B1FFF779FB44F864
:10527000048CA742F6D1302383F31188AB68012B4D
:1052800009D1002383F311880F490A4802B0BDE811
:10529000F041FBF73DB90D4BB36040F20112B28013
:1052A000002383F3118802B0BDE8F081900A00204A
:1052B000740B0020FC090108C1140008D80D00205F
:1052C000E4160020BC0D0020AC070108940A010878
:1052D00070B5074C002604F1140554F8040B18B1FE
:1052E000FFF73EFB44F8046CAC42F6D170BD00BF42
:1052F000E416002000000000000000000000000094
:1053000070B5074C002604F1140554F8040B18B1CD
:10531000FFF726FB44F8046CAC42F6D170BD00BF29
:10532000E416002000000000000000000000000063
:105330002DE9F043DFF8E090DFF8E080D9F80C20A9
:105340000223C8F8003083B09568302383F31188B6
:105350003348FEF76DFE002787F311880323C8F852
:105360000030304B00936A1C2F4B3048304C4FF4C8
:10537000D871FEF7FDFB2F4B20600093AA1C2A4B2F
:105380002D484FF4D871FEF7F3FB2C4B606000936F
:10539000EA1C254B2A484FF4D871FEF7E9FB294B4C
:1053A000A06000932A1D204B27484FF4D871FEF7C8
:1053B000DFFB264BE06000936A1D1B4B24484FF433
:1053C000D871FEF7D5FB042320611548C8F80030DA
:1053D000FEF7CEFE04F1140654F8040B18B1FFF7E3
:1053E000BFFA44F8047CB442F6D1D9F80C309B687B
:1053F000AB4206D11749184803B0BDE8F043FBF7AC
:1054000087B8164BC8F8083040F20112A8F80420FB
:1054100003B0BDE8F08300BF900A0020740B0020A9
:105420002C080020840A010871420008D80D0020D1
:10543000E4160020780A0108880F00207C0A010881
:1054400038110020000A0108E8120020FC090108B8
:1054500098140020AC070108800A0108040A01081A
:1054600070B5074C002604F1140554F8040B18B16C
:10547000FFF776FA44F8046CAC42F6D170BD00BF79
:10548000E416002000000000000000000000000002
:10549000F0B5614D614FEB6861499E686148624BB0
:1054A000624C83B0012200913A604FF4D871B21877
:1054B000FEF75EFB5E4B2060B21C00934FF4D87188
:1054C000594B5C48FEF754FB5B4B6060F21C009349
:1054D0004FF4D871544B5948FEF74AFB584BA06023
:1054E000321D00934FF4D8714F4B5648FEF740FBE6
:1054F000554BE060721D00934FF4D8714A4B5348EE
:10550000FEF736FB02233B602061302383F31188D2
:105510004F4B1A689A4261D0116896684B60002020
:10552000906282F824009069196000688468B4422F
:10553000FBD24468106099425460226042604DD0B2
:105540000A688E6853600020886281F824008869A8
:105550001A6000688468B442FBD2446808609A42CA
:105560004C602160416039D0116896684B60002022
:10557000906282F824009069196000688468B442DF
:10558000FBD244681060994254602260426025D08A
:105590000A688E6853600020886281F82400886958
:1055A0001A6000688468B442FBD2446808609A427A
:1055B0004C602160416011D0106818604360002188
:1055C00093699068916282F824101B6899688142FF
:1055D000FBD25968C2E900310A605A602A68EB6858
:1055E00092689B689A4201D9FCF7B2FC002686F3C8
:1055F00011880E4C04F1140554F8040B18B1FFF790
:10560000AFF944F8046CA542F6D11249124803B030
:10561000BDE8F040FAF77CBF900A0020740B002030
:10562000840A0108D80D002031430008E416002048
:10563000780A0108880F00207C0A01083811002030
:10564000000A0108E8120020FC0901089814002053
:1056500000080020AC070108800A010800000000D3
:10566000F0B53C4E3C4FF3683C499D683C483D4B8F
:105670003D4C83B0012200913A604FF4D871AA18D2
:10568000FEF776FA394B2060AA1C00934FF4D871CC
:10569000344B3748FEF76CFA364B6060EA1C0093D7
:1056A0004FF4D8712F4B3448FEF762FA334BA060A9
:1056B0002A1D00934FF4D8712A4B3148FEF758FA4F
:1056C000304BE0606A1D00934FF4D871254B2E4893
:1056D000FEF74EFA02233B602061302383F31188EA
:1056E0002A480168814217D04FF0000C6FF0010783
:1056F0000B4609689A699D680160486083F824C078
:1057000012689468AC42FBD254688142C3E9002419
:10571000236053609F62EBD13268F36892689B68A4
:105720009A4201D9FCF714FC002686F311880E4C2E
:1057300004F1140554F8040B18B1FFF711F944F8FB
:10574000046CA542F6D11249124803B0BDE8F040FE
:10575000FAF7DEBE900A0020740B0020840A0108CC
:10576000D80D002031430008E4160020780A010813
:10577000880F00207C0A010838110020000A010867
:10578000E8120020FC0901089814002000080020FD
:10579000AC070108800A01080000000000000000BA
:1057A00070B5304B304DDB6830489E68304B314C23
:1057B00082B002210090721C29602F484FF4D871EA
:1057C000FEF7D6F92D4A009203232B602060B21C0D
:1057D0002B4B2C484FF4D871FEF7CAF92A4A009295
:1057E00004232B606060294B2948F21C4FF4D871C8
:1057F000FEF7BEF905232B60A060302383F31188E8
:10580000244C2068A04205D00368236000215C601E
:10581000FEF736F8002181F3118806232B60302330
:1058200083F311882068A04204D0036823605C6081
:10583000FEF726F8002686F311880E4C07232B600E
:1058400004F1140554F8040B18B1FFF789F844F873
:10585000046CA542F6D11049104802B0BDE8704072
:10586000FAF756BE900A0020740B0020FC090108CC
:10587000D1430008E4160020D80D00207C0A01085E
:1058800031430008880F0020000A010891440008F5
:105890003811002000080020AC070108C0070108EB
:1058A0002DE9F04F314F324EF968324B8A68324859
:1058B00085B04FF0010900914A44C6F800904FF4BA
:1058C000D871FEF755F92D4BB0461860022348F801
:1058D000203B4FF0040B302585F31188F9680C4606
:1058E0004FF0000A54F8300FA0422DD002680A632E
:1058F0004FF00D0C546080F824C08AF31188846A3C
:1059000085F311882146FDF7BBFF8AF31188F36800
:10591000434502D25A1CF2601C70BBF1010BDBD173
:10592000164C5D4604F1140654F8040B18B1FFF749
:1059300017F844F8045CA642F6D11149114805B0A5
:10594000BDE8F04FFAF7E4BD386803914FF00E035D
:1059500081F8243002683A60576080F82490F8603B
:10596000FAF7AEFC0399086BC0E700BF900A00206D
:10597000740B002091140008D80D0020E4160020BC
:10598000AC070108A40A01080000000000000000A4
:105990002DE9F041554D012782B02F60302282F36E
:1059A0001188534CE1688B6B43F0050300208B6337
:1059B00080F311880223E6682B6082F31188B26BB2
:1059C000002A57D00023B36383F31188052A49D1F5
:1059D000302686F31188E268916B936383F3118814
:1059E000002959D103232B60FCF742FAE3689A6837
:1059F000009307463F4B4048013A4FF4D871FEF7F9
:105A0000B7F83E4BD4F80C80186004232B6086F363
:105A10001188D8F83820002A4CD00021C8F8381056
:105A200081F311884FF080435B6AA3F5FA73D81BAA
:105A3000132839D8012A52D1302383F31188E3681F
:105A40009E6B996381F3118836BB2C4C04F11405CD
:105A500054F8040B18B1FEF783FF44F8046CAC4211
:105A6000F6D104E0264BAB6040F20112AA8002B0EE
:105A7000BDE8F081E16820684FF0FF33B3620A238C
:105A800081F82430036823605C6080F82470E06053
:105A9000FAF716FCB26B95E71A4BAB6040F20112B5
:105AA000AA8002B0BDE8F081174BAB6040F2011252
:105AB000AA80DCE7E16820684FF0FF33C8F828309F
:105AC0000A2381F82430036823605C60012380F896
:105AD0002430E060FAF7F4FBD8F838209DE70B4B50
